:020000040802F0
:2000000001000000000000000002000001000000040000008EC2C97A345E020002000000AF
:20002000020000005344552D32303234422E62696E00000000000000000000000000000034
:200040000000000000000000000000000000000000000000000000000000000000000000A0
:20006000000000000000000000000000000000000000000000000000000000000000000080
:20008000000000000000000000000000000000000000000000000000000000000000000060
:2000A000000000000000000000000000000000000000000000000000000000000000000040
:2000C000000000000000000000000000000000000000000000000000000000000000000020
:2000E000000000000000000000000000000000000000000000000000000000000000000000
:200100000000000000000000000000000000000000000000000000000000000000000000DF
:200120000000000000000000000000000000000000000000000000000000000000000000BF
:2001400000000000000000000000000000000000000000000000000000000000000000009F
:2001600000000000000000000000000000000000000000000000000000000000000000007F
:2001800000000000000000000000000000000000000000000000000000000000000000005F
:2001A00000000000000000000000000000000000000000000000000000000000000000003F
:2001C00000000000000000000000000000000000000000000000000000000000000000001F
:2001E00000000000000000000000000000000000000000000000000000000000A9AE3B6607
:20020000000004204D26020801D6020803D6020805D6020807D6020809D6020800000000C4
:20022000000000000000000000000000E1D802080BD602080000000081D90208E5D90208E4
:200240009D2602089D2602089D2602089D2602089D2602089D2602080DD6020817D60208EC
:200260009D2602089D2602089D2602089D2602089D2602089D2602089D2602089D26020816
:200280009D2602089D2602089D2602089D2602089D2602089D2602089D2602089D260208F6
:2002A0009D2602089D2602089D2602089D2602082DD602089D2602083DD602089D26020846
:2002C0009D260208EDD60208FDD602089D2602089D2602089DD602089D2602089D260208F6
:2002E00021D602080DD702089D2602089D2602085DD602089D2602089D2602089D260208D1
:200300009D2602089D2602084DD602089D2602089D2602089D2602089D2602089D26020815
:20032000DDD602088DD60208ADD602087DD602086DD602080000000000000000000000005C
:200340000000000000000000000000009D260208CDD602089D260208BDD602089D260208EC
:200360009D2602089D2602089D2602089D2602089D2602089D2602080000000000000000AF
:200380009D2602089D2602089D2602089D2602089D2602089D260208000000009D260208C2
:2003A0000000000000000000000000009D2602089D2602089D2602080000000000000000D6
:2003C000000000000000000000000000000000000000000000000000000000009D26020850
:2003E0000000000000000000000000000000000000000000000000000000000000000000FD
:2004000010B5054C237833B9044B13B10448AFF300800123237010BD7C0B00200000000093
:200420002CEB030808B5034B1BB103490348AFF3008008BD00000000800B00202CEB030878
:20044000844641EA000313F003036DD1403A41D351F8043B40F8043B51F8043B40F8043BD1
:2004600051F8043B40F8043B51F8043B40F8043B51F8043B40F8043B51F8043B40F8043B80
:2004800051F8043B40F8043B51F8043B40F8043B51F8043B40F8043B51F8043B40F8043B60
:2004A00051F8043B40F8043B51F8043B40F8043B51F8043B40F8043B51F8043B40F8043B40
:2004C00051F8043B40F8043B51F8043B40F8043B403ABDD2303211D351F8043B40F8043BD0
:2004E00051F8043B40F8043B51F8043B40F8043B51F8043B40F8043B103AEDD20C3205D3E0
:2005000051F8043B40F8043B043AF9D2043208D0D2071CBF11F8013B00F8013B01D30B8831
:2005200003806046704700BF082A13D38B078DD010F003038AD0C3F10403D21ADB071CBF51
:2005400011F8013B00F8013B80D331F8023B20F8023B7BE7043AD9D3013A11F8013B00F850
:20056000013BF9D20B7803704B7843708B78837060467047000000000000000000000000B5
:20058000A2EB0300704700BF02780B78012A28BF9A42F5D16DE9044540EA0104CDE90267B7
:2005A0006FF0000C4FEA447212B380EA010414F0070F6AD100F0070420F0070004F003054A
:2005C00021F007014FEAC505F0E8042314F0040FF1E804670CFA05F462EA040266EA0406FA
:2005E0000AD063EA0403624667EA0407664603E0F0E80423F1E8046782FA4CF582EA0604C4
:20060000A4FA8CF46CBB83FA4CF583EA0705A5FA8CF595B950E9022351E9026782FA4CF532
:2006200082EA0604A4FA8CF483FA4CF583EA0705A5FA8CF52543DBD09CB92DBAB5FA85F458
:2006400024F0070427FA04F1DDE9026723FA04F303F0FF0001F0FF01FDE80445A0EB010085
:20066000704724BAB4FA84F424F0070426FA04F1DDE9026722FA04F202F0FF0001F0FF0168
:20068000FDE80445A0EB0100704714F0030F3CD110F0030428D150F8082B51F8083B82FA43
:2006A0004CF582EA0305A5FA8CF55DB950F8042C51F8043C82FA4CF582EA0305A5FA8CF5FD
:2006C000002DE8D02DBAB5FA85F424F0070423FA04F122FA04F202F0FF0001F0FF01FDE81C
:2006E0000445A0EB010070474FEAC40420F0030050F8082B21F0030151F8083B0CFA04F440
:2007000062EA040263EA0403C9E710F003041AD0A1EB040120F00300E40750F8042B06D0B6
:200720000FD28B785FFAA2F4E41A06D12BB1CB785FFAB2F4E41A00D11BB920465DF8104B3A
:20074000704701F1040150F8042BCC0721F0030151F8043B48D824D222F07F4482FA4CF55C
:2007600094EA1325A5FA8CF50AD165B951F8043B84EA0204B4EB036F0ED150F8042BEBE775
:200780004FEA132355E035F07F454DD10878FDE80445C0F1000070474FEA126203F0FF03F6
:2007A00047E002EA1C4482FA4CF594EA1345A5FA8CF50AD165B951F8043B84EA0204B4EB7F
:2007C000034F0CD150F8042BEBE74FEA134330E015EA1C4528D10B884FEA124229E04FEA47
:2007E000124203EA1C4324E002F0FF0482FA4CF594EA1365A5FA8CF50AD165B951F8043B0C
:2008000084EA0204B4EB032F09D150F8042BEBE74FEA13630DE015F0FF0F05D10B684FEA3F
:20082000122223F07F4304E04FF00000FDE80445704712BA1BBA82FA4CF482EA0304A4FA39
:200840008CF5B5FA85F402FA04F203FA04F34FEA1260FDE80445A0EB13607047000000007B
:20086000000000000000000000000000000000000000000000000000000000000000000078
:2008800090F800F06DE9024520F007016FF0000C10F0070491F820F040F049804FF00004E0
:2008A0006FF00700D1E9002391F840F000F1080082FA4CF2A4FA8CF283FA4CF3A2FA8CF396
:2008C0004BBBD1E9022382FA4CF200F10800A4FA8CF283FA4CF3A2FA8CF3E3B9D1E9042310
:2008E00082FA4CF200F10800A4FA8CF283FA4CF3A2FA8CF37BB9D1E9062301F1200182FAAC
:200900004CF200F10800A4FA8CF283FA4CF3A2FA8CF3002BC6D0002A04BF04301A4612BA9F
:20092000B2FA82F2FDE8024500EBD2007047D1E9002304F00305C4F100004FEAC50514F062
:20094000040F91F840F00CFA05F562EA05021CBF63EA050362464FF00004A9E700000000CD
:2009600001F0FF01102A2BDB10F0070F08D010F8013B013A8B422DD010F0070F42B3F6D13D
:20098000F0B441EA012141EA014122F007047FF000070023F0E80256083C85EA010586EAEA
:2009A000010685FA47F5A3FA87F586FA47F6A5FA87F68EB9EED1F0BC01F0FF0102F00702E5
:2009C00032B110F8013B013A83EA010313B1F8D10020704701387047002D06BF3546033848
:2009E000073815F0010F07D1013015F4807F02BF013015F4C03F0130F0BC0138704700BF0C
:200A000081F0004102E000BF83F0004330B54FEA41044FEA430594EA050F08BF90EA020F05
:200A20001FBF54EA000C55EA020C7FEA645C7FEA655C00F0E2804FEA5454D4EB5555B8BFDB
:200A40006D420CDD2C4480EA020281EA030382EA000083EA010180EA020281EA0303362D92
:200A600088BF30BD11F0004F4FEA01314FF4801C4CEA113102D0404261EB410113F0004FFC
:200A80004FEA03334CEA133302D0524263EB430394EA050F00F0A780A4F10104D5F1200E3A
:200AA0000DDB02FA0EFC22FA05F2801841F1000103FA0EF2801843FA05F359410EE0A5F182
:200AC00020050EF1200E012A03FA0EFC28BF4CF0020C43FA05F3C01851EBE37101F000458E
:200AE00007D54FF0000EDCF1000C7EEB00006EEB0101B1F5801F1BD3B1F5001F0CD3490808
:200B00005FEA30004FEA3C0C04F101044FEA445212F5800F80F09A80BCF1004F08BF5FEAE6
:200B2000500C50F1000041EB045141EA050130BD5FEA4C0C404141EB0101013C28BFB1F55F
:200B4000801FE9D291F0000F04BF01460020B1FA81F308BF2033A3F10B03B3F120020CDAFA
:200B60000C3208DD02F1140CC2F10C0201FA0CF021FA02F10CE002F11402D8BFC2F1200C0E
:200B800001FA02F120FA0CFCDCBF41EA0C019040E41AA2BF01EB0451294330BD6FEA040448
:200BA0001F3C1CDA0C340EDC04F11404C4F1200220FA04F001FA02F340EA030021FA04F399
:200BC00045EA030130BDC4F10C04C4F1200220FA02F001FA04F340EA0300294630BD21FAB7
:200BE00004F0294630BD94F0000F83F4801306BF81F480110134013D4EE77FEA645C18BF95
:200C00007FEA655C29D094EA050F08BF90EA020F05D054EA000C04BF1946104630BD91EACE
:200C2000030F1EBF0021002030BD5FEA545C05D14000494128BF41F0004130BD14F580042B
:200C40003CBF01F5801130BD01F0004545F0FE4141F470014FF0000030BD7FEA645C1ABFA7
:200C6000194610467FEA655C1CBF0B46024650EA013406BF52EA033591EA030F41F4002196
:200C800030BD00BF90F0000F04BF0021704730B54FF4806404F132044FF000054FF00001C3
:200CA00050E700BF90F0000F04BF0021704730B54FF4806404F1320410F0004548BF40420F
:200CC0004FF000013EE700BF42004FEAE2014FEA31014FEA02701FBF12F07F4393F07F4F89
:200CE00081F06051704732F07F4208BF704793F07F4F04BF41F40021704730B54FF460749D
:200D000001F0004521F000411CE700BF50EA010208BF704730B54FF000050AE050EA01027E
:200D200008BF704730B511F0004502D5404261EB41014FF4806404F132045FEA915C3FF468
:200D4000D8AE4FF003025FEADC0C18BF03325FEADC0C18BF033202EBDC02C2F1200300FAB4
:200D600003FC20FA02F001FA03FE40EA0E0021FA02F11444BDE600BF70B54FF0FF0C4CF4BD
:200D8000E06C1CEA11541DBF1CEA135594EA0C0F95EA0C0F00F0DEF82C4481EA030621EA6A
:200DA0004C5123EA4C5350EA013518BF52EA033541F4801143F4801338D0A0FB02CE4FF0ED
:200DC0000005E1FB02E506F00042E0FB03E54FF00006E1FB03569CF0000F18BF4EF0010E17
:200DE000A4F1FF04B6F5007F64F5407404D25FEA4E0E6D4146EB060642EAC62141EA5551DA
:200E00004FEAC52040EA5E504FEACE2EB4F1FD0C88BFBCF5E06F1ED8BEF1004F08BF5FEAAE
:200E2000500E50F1000041EB045170BD06F0004646EA010140EA020081EA0301B4EB5C045D
:200E4000C2BFD4EB0C0541EA045170BD41F480114FF0000E013C00F3AB8014F1360FDEBF3F
:200E6000002001F0004170BDC4F10004203C35DA0C341BDC04F11404C4F1200500FA05F3BF
:200E800020FA04F001FA05F240EA020001F0004221F0004110EBD37021FA04F642EB06011A
:200EA0005EEA430E08BF20EAD37070BDC4F10C04C4F1200500FA04F320FA05F001FA04F2C8
:200EC00040EA020001F0004110EBD37041F100015EEA430E08BF20EAD37070BDC4F120058F
:200EE00000FA05F24EEA020E20FA04F301FA05F243EA020321FA04F001F0004121FA04F232
:200F000020EA020000EBD3705EEA430E08BF20EAD37070BD94F0000F0FD101F000464000D3
:200F200041EB010111F4801F08BF013CF7D041EA060195F0000F18BF704703F00046520035
:200F400043EB030313F4801F08BF013DF7D043EA0603704794EA0C0F0CEA135518BF95EAB1
:200F60000C0F0CD050EA410618BF52EA4306D1D181EA030101F000414FF0000070BD50EAB4
:200F8000410606BF1046194652EA430619D094EA0C0F02D150EA013613D195EA0C0F05D1F1
:200FA00052EA03361CBF104619460AD181EA030101F0004141F0FE4141F470014FF000005B
:200FC00070BD41F0FE4141F4780170BD70B54FF0FF0C4CF4E06C1CEA11541DBF1CEA1355E9
:200FE00094EA0C0F95EA0C0F00F0A7F8A4EB050481EA030E52EA03354FEA013100F0888044
:201000004FEA03334FF0805545EA131343EA12634FEA022245EA111545EA10654FEA0026A1
:201020000EF000419D4208BF964244F1FD0404F5407402D25B084FEA3202B61A65EB030544
:201040005B084FEA32024FF480104FF4002CB6EB020E75EB030E22BFB61A754640EA0C00BA
:201060005B084FEA3202B6EB020E75EB030E22BFB61A754640EA5C005B084FEA3202B6EB1B
:20108000020E75EB030E22BFB61A754640EA9C005B084FEA3202B6EB020E75EB030E22BFCA
:2010A000B61A754640EADC0055EA060E18D04FEA051545EA16754FEA06164FEAC30343EAD6
:2010C00052734FEAC2025FEA1C1CC0D111F4801F0BD141EA00014FF000004FF0004CB6E729
:2010E00011F4801F04BF01430020B4F1FD0C88BFBCF5E06F3FF6AFAEB5EB030C04BFB6EB8B
:20110000020C5FEA500C50F1000041EB045170BD0EF0004E4EEA113114EB5C04C2BFD4EBC8
:201120000C0541EA045170BD41F480114FF0000E013C90E645EA060E8DE60CEA135594EA99
:201140000C0F08BF95EA0C0F3FF43BAF94EA0C0F0AD150EA01347FF434AF95EA0C0F7FF4B0
:2011600025AF104619462CE795EA0C0F06D152EA03353FF4FDAE1046194622E750EA4106D1
:2011800018BF52EA43067FF4C5AE50EA41047FF40DAF52EA43057FF4EBAE12E74FF0FF3C5C
:2011A00006E000BF4FF0010C02E000BF4FF0010C4DF804CD4FEA410C7FEA6C5C4FEA430CFC
:2011C00018BF7FEA6C5C1BD001B050EA410C0CBF52EA430C91EA030F02BF90EA020F002095
:2011E000704710F1000F91EA030F58BF994208BF90422CBFD8176FEAE37040F001007047A2
:201200004FEA410C7FEA6C5C02D150EA013C07D14FEA430C7FEA6C5CD6D152EA033CD3D077
:201220005DF8040B704700BF8446104662468C461946634600E000BF01B5FFF7B7FF002809
:2012400048BF10F1000F01BD4DF808EDFFF7F4FF0CBF012000205DF808FB00BF4DF808ED39
:20126000FFF7EAFF34BF012000205DF808FB00BF4DF808EDFFF7E0FF94BF012000205DF84C
:2012800008FB00BF4DF808EDFFF7CEFF94BF012000205DF808FB00BF4DF808EDFFF7C4FFF1
:2012A00034BF012000205DF808FB00BF4FEA410212F5001215D211D56FF47873B3EB6252E1
:2012C00012D94FEAC12343F0004343EA505311F0004F23FA02F018BF404270474FF0000012
:2012E000704750EA013005D111F0004008BF6FF0004070474FF00000704700BF4A0011D2B6
:2013000012F5001211D20DD56FF47873B3EB62520ED44FEAC12343F0004343EA505323FAED
:2013200002F070474FF00000704750EA013002D14FF0FF3070474FF0000070474FEA410239
:20134000B2F1E04324BFB3F5001CDCF1FE5C0DD901F0004C4FEAC0024CEA5070B2F1004FF3
:2013600040EB830008BF20F00100704711F0804F21D113F13872BCBF01F00040704741F428
:2013800080114FEA5252C2F11802C2F1200C10FA0CF320FA02F018BF40F001004FEAC123F9
:2013A0004FEAD32303FA0CFC40EA0C0023FA02F34FEA4303CCE77FEA625307D150EA01331B
:2013C0001EBF4FF0FE4040F44000704701F0004040F0FE4040F40000704700BF53B94AB930
:2013E000002908BF00281CBF4FF0FF314FF0FF3001F014B9ADF1080C6DE904CE00F03CF861
:20140000DDF804E0DDE9022304B0704738B50022002304460D46FFF721FF28B92046294622
:20142000BDE8384000F00AB8204605F1004100F005F8404261EB410138BD00BFD0B50C4BB3
:20144000002206460F46FFF797FCFFF757FF0446FFF718FC074B0022FFF78EFC02460B4613
:2014600030463946FFF7D0FAFFF748FF2146D0BD0000F03D0000F0412DE9F047089D0446EC
:201480008E46002B4DD18A42944669D9B2FA82F252B101FA02F3C2F1200120FA01F10CFA4E
:2014A00002FC41EA030E94404FEA1C48210CBEFBF8F61FFA8CF708FB16E341EA034306FBA3
:2014C00007F199420AD91CEB030306F1FF3080F01F81994240F21C81023E63445B1AA4B2B7
:2014E000B3FBF8F008FB103344EA034400FB07F7A7420AD91CEB040400F1FF3380F00A81A9
:20150000A74240F207816444023840EA0640E41B00261DB1D4400023C5E900433146BDE89F
:20152000F0878B4209D9002D00F0EF800026C5E9000130463146BDE8F087B3FA83F6002EC7
:201540004AD18B4202D3824200F2F980841A61EB030301209E46002DE0D0C5E9004EDDE70D
:2015600002B9FFDEB2FA82F2002A40F09280A1EB0C014FEA1C471FFA8CFE0126200CB1FB70
:20158000F7F307FB131140EA01410EFB03F0884208D91CEB010103F1FF3802D2884200F264
:2015A000CB804346091AA4B2B1FBF7F007FB101144EA01440EFB00FEA64508D91CEB0404D3
:2015C00000F1FF3102D2A64500F2BB800846A4EB0E0440EA03409CE7C6F12007B34022FA32
:2015E00007FC4CEA030C20FA07F401FA06F31C43F9404FEA1C4900FA06F3B1FBF9F8200CA8
:201600001FFA8CFE09FB181140EA014108FB0EF0884202FA06F20BD91CEB010108F1FF3AB0
:2016200080F08880884240F28580A8F102086144091AA4B2B1FBF9F009FB101144EA014146
:2016400000FB0EFE8E4508D91CEB010100F1FF346CD28E456AD90238614440EA0840A0FB62
:201660000294A1EB0E01A142C846A64656D353D05DB1B3EB080261EB0E0101FA07F722FAEA
:2016800006F3F1401F43C5E9007100263146BDE8F087C2F12003D8400CFA02FC21FA03F3E3
:2016A000914001434FEA1C471FFA8CFEB3FBF7F007FB10360B0C43EA064300FB0EF69E428D
:2016C00004FA02F408D91CEB030300F1FF382FD29E422DD9023863449B1B89B2B3FBF7F6AC
:2016E00007FB163341EA034106FB0EF38B4208D91CEB010106F1FF3816D28B4214D9023E67
:201700006144C91A46EA004638E72E46284605E70646E3E61846F8E64B45A9D2B9EB0208D4
:2017200064EB0C0E0138A3E74646EAE7204694E74046D1E7D0467BE7023B614432E7304618
:2017400009E76444023842E703685A004CBF43F0004323F000431844704700BF2DE9F843CF
:2017600029B34F1E044615463E464FF0000808EB060101EBD171491004EBC1094846FFF7F2
:20178000E3FF0346C80008308F42204409D0AB4209D8FFF7D9FF0138A8420AD201F101087A
:2017A000E5E7AB4205D9884501D04E1EDFE74FF000094846BDE8F883012807D0022807D0CB
:2017C000044B00280CBF1846002070470248704702487047911E0208951E0208991E020859
:2017E00030B5234B83B004468D1E3BB301A92846AFF30080E8B101992A46FFF7AFFF0146B8
:20180000B8B1FFF7A1FF4B68A064012B2CD0002B01F1040024DBFFF797FF0023C4E9130358
:201820000368002B11DBFFF78FFF2061002003B030BD00230920236103B030BD0D4B0E4942
:20184000C91AC91018460191D6E7C3F30360FFF7B3FF0028206114BF0020092003B030BDF9
:201860000123C4E91303DBE7002323610520DEE70000000080520408B85404080368DA07EC
:2018800010B5044606D49B0700F1480009D500F05BFC2368590709D51A070ED5DB0613D5C9
:2018A00010BD00F049FC23685907F5D404F1D00000F052FC23681A07F0D404F5A87000F0FE
:2018C00053FC2368DB06EBD404F5E870BDE8104000F08EBC092070470346006800B1184470
:2018E000704700BF704700BF70B504460E46316C2046FFF775FF054688B9326C6261236953
:2019000032462146012098470828F0D0072806D12846316CFFF7E6FF301D00F001FC1BF0C7
:2019200065FF00BF2DE9F0470D1DD0F80C80D0F81890074614460FCDADF5727D0DF10C0C1F
:20194000ACE80F000FCDACE80F000FCDACE80F0095E80F0002AE4FF0000E8CE80F00C6F81C
:2019600000E020E0336C7B614FF4F07231467AA8FEF766FD3B697AAA394650469847889B97
:2019800073642146CDE9006905463B463A460120C0470446E0B94FF4F0727AA93046FEF760
:2019A0004FFD082D1AD1316C3846FFF719FF09345FFA84FA05460028D4D0B36B73643A46F2
:2019C000CDE900693B464AF010010120C04700B1092528460DF5727DBDE8F087072DF7D19E
:2019E0002046316CFFF77EFF03A800F099FB00BF406C7047F0B5CB6B0B6401F1040C0E4680
:201A00000546BCE80F00F9B001AC0FC4BCE80F000FC4BCE80F000FC49CE80F004FF0FF378B
:201A200084E80F00009706E02B696A46294698470828044608D110992846FFF7D1FE0028C5
:201A4000F2D0092079B0F0BD6846FFF717FF062CF7D131462846FFF747FF00BFC160D96BCC
:201A600082611964002219465CE700BF70B5C66843690B64AEB903690A4604460D4601460E
:201A800002209847072805D008280FD129462046FFF72AFF3046296CFFF724FF281D00F0E4
:201AA0003FFB0122FFF73EFF1BF0A0FE1BF09EFEC2681AB1CA6B0A64002233E79AE700BF32
:201AC000704700BF836801460BB1012018477047012912D009D873B90F2A0CD800EB8202C6
:201AE00018465368009A136070470339012994BF012002207047022070470846704700BFB9
:201B000000B585B00A46002303A900911946FFF7DFFF039805B05DF804FB00BF012912D089
:201B200009D873B90F2A0CD800EB8200009A12684260184670470339012994BF0120022047
:201B40007047022070470846704700BF10B584B0002303AC039200940A461946FFF7DEFFBB
:201B600004B010BD70B5D36B136402F1040C05460C46BCE80F00ADF50E7D0DF15C0EAEE88C
:201B80000F00BCE80F00AEE80F00BCE80F00AEE80F009CE80F004FF0FF368EE80F0016964E
:201BA00010E0FFF7D3FF214616A8A847034616AA6946082083B9049B9847052806460CD06A
:201BC000092809D026996846FFF70AFE03466A460C2116A8002BE4D0092616A8FFF74EFE9E
:201BE00030460DF50E7D70BD2DE9F04FCC6C89B01E4654F8043B06940D46174600F00308BB
:201C0000002E79D01A0C1B0405938DF81D200223D2B204EB82048DF81C302B6DB8F1020F6D
:201C200008BFAC6B13F001030CD005A9384600F079FB18B9082009B0BDE8F08F092009B09B
:201C4000BDE8F08FD4F800A0BAF1000FEDD0019300F008030293022E4AD0B4F800A0B4F817
:201C600002900434AB6C29F0010B0F2138469B44FFF746FF834539D82AF001039B448345F8
:201C800094BF002001204FEA490303F002030AF0010A43EA0A03012B49D0022B32D0002B55
:201CA000CCD1B8F1000F02D0002840F0CD800434D4F800A0BAF1000FCDD105A9384600F040
:201CC00031FB0028BAD1019B002BB3D00F213846FFF716FF0E2102463846FFF737FF384683
:201CE0006A4A0F21FFF732FF0720A8E70020CAE7D4F804900834B5E71B0205930323ADF89A
:201D00001C308AE7236823F0004BB8F1000F45D128B1029A002A5CD0BBF1000F74D0002B5A
:201D200000DA04340BF1010B04EB8B04C0E7B8F1000F19D1B0B163682268991C4FEAD272DA
:201D40003FF47CAF05F158010133049100F09080201DFFF7C1FD04AB01462846AFF3008096
:201D600000285BD10834A3E70D213846D5F82090FFF7C6FE8145F5D1AB6A9C42F2D12046BE
:201D8000FFF7E2FC0F2102463846FFF7DFFE38462A460021FFF7DAFE072050E70D213846BF
:201DA000D5F82090FFF7ACFE814501D02368B6E7AB6A9C42FAD104230022C5E90B23E31869
:201DC000C5F828B06B632368002B59DB01230193A8E705F15803CDF80C8004F1040AB046D4
:201DE00091461E460EE050460496FFF775FD0022014604AB284609F101090AF1040AAFF3ED
:201E00000080E0B9D945EED10D213846FFF778FE049BAC62C5E90803062010E781460D213C
:201E20003846FFF76DFEB9F1020F286225D12B46049A43F82C2F6B62AC620620FFE6464671
:201E40002368DDF80C806AE72046FFF77DFC04340246AC6328461446AFF3008000283FF49C
:201E6000EDAE384622460F21FFF770FE0720E6E60D213846FFF744FE2862049B6B62DBE7BE
:201E80000BF1010004EB80007AE700BF000000000023A9E60123A7E60223A5E62DE9F0435A
:201EA0000646C3B015461C46042900F2BF80DFE801F09E57BD2D0300002C40F0B780102AE1
:201EC00000F2B4800368D80600F1F98020AF384600F098F9B46B394600234FF0010C0CFA48
:201EE00003F22A42204603F1010303D050F8042B0A600446042B01F10401F0D13846B463A9
:201F000000F076F9002043B0BDE8F083032C40F08D8094B204EB1243102B4FEA124500F284
:201F2000858003681F0700F1D28020AF384600F03DF9B26B07EBC50154B10B46D01A01EB54
:201F4000C401E4001D5843F8045B8B42FAD122443846B26300F008F9002043B0BDE8F0831C
:201F6000012C4FEA124895B25CD0052C5ED108EB0509B9F1200F59D8B8F10F0F79D9A946BB
:201F8000002D40F08A80B36B6DB320AF4FF0000907EBC807043F03EBC50553F8041B47F820
:201FA000041FAB42F9D1B9F1000F0FD06F464146102938BF102107EBC101843903EBC905E5
:201FC00053F8040B41F8040FAB42F9D1012C00F08680B8F10F0FB56347D9B9F1000F02D0F7
:201FE000684600F0B9F8002043B0BDE8F083ECB9806B23461FFA82FC0124371D04FA03F26B
:020000040802F0
:2020000012EA0C0F014604D051F8042B47F8232008460133102BF1D115F40055E3D1B063F0
:20202000284604E008EB0503102B03D9022043B0BDE8F083B8F10F0FF8D83368DA0706D521
:20204000304623F0030340F8483B00F079F820AF384600F075F8B36B002D97D11D460435DC
:20206000B563384600F068F8BDE720A800F06CF8B3E7B9F1100F40D9A9F110093368D90710
:2020800008D523F00103304643F0020340F8483B00F05EF8B9F1000F32D033685A0720D4F2
:2020A000B8F10F0F25D96F463846C8F1100500F057F8002DB36B7FF77AAF20AF68E723F000
:2020C0001003336006F5E87000F09CF8FEE623F00803036000F5A87000F068F825E720AFE6
:2020E000BDE7304623F0040340F8D03B00F038F8D6E720A800F02CF8D5E74FF00009BDE708
:20210000B8F10F0F3FF63FAF20AF384600F020F8B36B002D7FF43AAF384600F015F862E715
:2021200000F1340191E838009C46A6464CF8045D90E8FF0FE54600BD90EC210B704700BFC9
:2021400080EC210B704700BF90EC200B704700BF80EC200B704700BFD0EC200B704700BFEA
:20216000C0EC200B704700BFF0EC0201F0EC0211F0EC0221F0EC0231F0EC0241F0EC0251E8
:20218000F0EC0261F0EC0271F0EC0281F0EC0291F0EC02A1F0EC02B1F0EC02C1F0EC02D187
:2021A000F0EC02E1F0EC02F1704700BFE0EC0201E0EC0211E0EC0221E0EC0231E0EC024170
:2021C000E0EC0251E0EC0261E0EC0271E0EC0281E0EC0291E0EC02A1E0EC02B1E0EC02C147
:2021E000E0EC02D1E0EC02E1E0EC02F1704700BFB0FC0181B0FC0191B0FC01A1B0FC01B144
:20220000704700BFA0FC0181A0FC0191A0FC01A1A0FC01B1704700BFEC4600B52DE90050AD
:202220002DE9FF1F4FF000032DE90C0001A9FFF7E1FBDDF840E012B0704700BFEC4600B576
:202240002DE900502DE9FF1F4FF000032DE90C0001A9FFF70BFCDDF840E012B0704700BFAC
:20226000EC4600B52DE900502DE9FF1F4FF000032DE90C0001A9FFF71BFCDDF840E012B00B
:20228000704700BFEC4600B52DE900502DE9FF1F4FF000032DE90C0001ABFFF7DFFBDDF892
:2022A00040E012B0704700BFEC4600B52DE900502DE9FF1F4FF000032DE90C0001AAFFF740
:2022C00051FCDDF840E012B0704700BF027A03467AB9427AA2B14168013A10B442720868B1
:2022E00003220C1D1A7202025C60000E10BC1A6070470068013A1A7202021A60000E7047C7
:20230000B020704700B585B0002303AA009219460C22FFF7DDFB039805B05DF804FB00BF2C
:20232000F0E700BF2DE9F043054685B00E464FF000083046FFF7CAFFB028044600F0BA8022
:20234000070620D500F0F003802B4DD0902B36D0A02B60D0B02B74D0C02B00F08B8000F01F
:20236000F803D02B0BD100F007020132052342F4002201212846FFF791FD0028D9D00920D1
:2023800005B0BDE8F0838300DBB21F1D0DF10C0900231946CDF800900D222846FFF798FB14
:2023A000039BCDF8009060064CBFDF1BFF1800230D22194628460397FFF7B0FBB9E700F0BE
:2023C0000D030D2BDBD003AF002300F00F02194600972846FFF77CFB002300970D2219461B
:2023E0002846FFF79BFBA4E73046FFF76FFF24022043B0F5004FC2D004010023A2B2194694
:202400002846FFF74BFD0028B9D114F4004F18BF4FF001088DE7C24302F007034FF47F624F
:202420001A41010702F47F624FF0000348BF42F4804219462846FFF731FD00283FF479AFAD
:202440009DE7B1283BD0B22800F09380B32841D000F0FC03B42B92D000F0070201320123CB
:2024600042F4002219462846FFF718FD00283FF460AF84E7C6284AD0C72854D000F0F80351
:20248000C02B63D0C82868D0C9287FF478AF3046FFF71CFF020300F00F0002F47022013027
:2024A0000243012105232846FFF7F8FC00283FF440AF64E7B8F1000F18D0002060E7304623
:2024C000FFF704FF024600283FF459AF10F0F003C8D054E73046FFF7F9FE020300F00F0328
:2024E000013302F470221A430123BBE703AC43460E22414600942846FFF7EAFA0094434615
:202500000F2241462846FFF709FB404638E73046FFF7DCFE020300F00F03013302F47022ED
:202520001A4303239EE73046FFF7D0FE024600283FF425AF10F0F0037FF421AF0421284619
:20254000FFF7ACFC00283FF4F4AE18E700F00F020132032342F4202284E73046FFF7B6FE84
:2025600000F0F00200F00F031032013343EA023297E700230DF10C090D221946CDF8009009
:202580002846FFF7A5FA3046FFF7A0FE02064FF002040CD5039B00F07F00A0401844039024
:2025A0003046FFF793FE030604F10704F2D4039BCDF8009000F07F02A24003F501731A443F
:2025C0000023039219460D222846FFF7A7FAB0E610B5C26C536884B04FF0030C08321C0292
:2025E00008461B0E01A9019402928DF80CC08DF80D30FFF797FE04B010BD00BF08B5FFF700
:202600008FFE806C08BD00BF08B5FFF789FEC06CC379023300EB830008BD00BF704700BF7E
:2026200000B583B000F012FF00230193072200924FF480720349044811F05DFA11F002FB1C
:20264000FEE700BF50EB0308C13B0208DFF834D0002103E00C4B5B58435004310B480C4B2F
:2026600042189A42F6D30B4A02E0002342F8043B094B9A42F9D30BF0AFF817F053F9FFF7A1
:20268000CFFF704700000420C8540408100000207C0B00207C0B0020D8CC0220FEE7000040
:2026A00070B582B0044602F0BFFE58B114F060FD70B92CB1002302221946204611F02CFE23
:2026C000002533E0304A3149032009F03FFFEDE72F4A2E49012009F039FF4E222D49002058
:2026E00009F0A2FFE5E72C4C20682C4E3368C01A00B214F093FE2368336023683233284ABE
:20270000136023E002F090FE10B10BF07DFD28E0244A1E49032009F019FFF6E71E4B1A68B4
:20272000214B1A602546012001F0F1F91F4B1A68194B1B689A4203D2174B1A681B4B1A6004
:20274000174B1A68144B1B689A42CCD3164B1A68114B1B689A42E6D200F068FB0446042819
:20276000D0D0A542DAD002F05FFE0028D6D1104B53F82420009253F825300E4A0349032027
:2027800009F0E4FECAE700BF6CEC030888EC030894EC0308B8EC030810BC0020380000208E
:2027A0009C0B00200CED0308A00B0020A40B00201C00002034ED030800B585B011F0FCFC69
:2027C00003460B4A02920B4A0192032200924FF400620949094811F04DF9094B18604FF08E
:2027E000FF31012011F05CFD05B05DF804FB00BFA80B0020000C002050ED0308A12602084E
:20280000980B002008B503F0B1FE08BD08B5FFF7F9FF03F08FF900F0E9F808BD022800D01B
:202820007047024B06221A70FAE700BF5C2E0020024B1860C009024B1880704764300020BA
:202840006030002008B5094A0949032009F07EFE4FF400720021074817F0BAF80023064A7D
:202860001370064A1380064A137008BD18EE030828EE0308602E0020332C0020342C00207B
:20288000322C0020154B1B883BB370B51146144B1C78032C04D9124B1B78042B0DD070BD25
:2028A000104E3588802210482844FDF7C9FD8035358001340A4B1C70EDE70C4A0C490320BB
:2028C00009F044FE4FF4007207490A48FDF7B8FD034A137801331370E1E7704760300020FF
:2028E000332C0020342C0020542C002034EE030828EE0308602E002008B503221849194899
:2029000017F07CF928BB18494FF000530B6000221A605A601A720A68144B03CB1060516058
:202920001B781372124B02221A7011F0D3F9114B186013F0F1FA4FF4007200210E4817F0B2
:2029400047F800230D4A13700D4A13800D4A137008BD074B06221A700B4813F0E5FAEAE7A8
:2029600054EE0308842E0020542E002058EE03085C2E0020582E0020602E0020332C0020C8
:20298000342C0020322C00204528020800B583B00D4B1B68013B0D4A93420ED813F0BCFAF8
:2029A0000B4B01930B4B00930B4B80220F210B4813F07CFA03B05DF804FB094B03221A7046
:2029C000084813F0B1FAF5E764300020FE1F0300F9280208852802081D280208002C0020CC
:2029E0005C2E0020452802086D20704708B50E4B5B7803B908BD11F06DF90C4B1B68C01AED
:202A00000B4B186041F287339842F3D9BFF34F8F0849CA6802F4E062074B1343CB60BFF385
:202A20004F8F00BFFDE700BF5C2E0020582E0020382C002000ED00E00400FA0510B582B0BB
:202A4000274C284B0FCB84E80F00274B5B785BB1254B1B78073BDBB2012B21D9224B1B78F2
:202A6000012B26D0FFF7C2FF1F4B5B78002B35D11D4B1B78052B18BF032B27D0062B25D0C2
:202A8000073BDBB2012B29D84FF00053174A136000221A605A601A72134B01221A701DE0EA
:202AA000134A1449032009F051FD0F4B01221A70D4E711F00FF9104B1860104B0093104B0B
:202AC000104A0F21064813F0CDF9CBE7084A0949032009F03BFD044B01221A7002B010BD30
:202AE000002C002064EE03085C2E0020542E002074EE030828EE0308582E00208D290208ED
:202B0000312802081D280208704700000D4B1B68B3B130B583B004460B4B1B6813B90120E5
:202B200003B030BD094B1D7814F07CFC01900095052301220421204614F02CFE0020EFE770
:202B4000012070477830002080300020693000200D4B1B68B3B130B583B004460B4B1B68D2
:202B600013B9012003B030BD094B1D7814F05AFC01900095052302220421204614F00AFE7C
:202B80000020EFE7012070477430002084300020683000200E4B1B68C3B970B582B004461E
:202BA0000C4B1B6813B9012002B070BD0A4B1E8BDD6914F037FC0190EDB20095052332468F
:202BC0000421204614F0E6FD0020EDE701207047783000208030002070000020134B1B68AE
:202BE0000BBBF0B585B00446114B1B6813B9012005B0F0BD0F4D35F8047B14F013FC029010
:202C0000042601960223009305233A463146204614F0F3FD00233246294604F10C0014F0B3
:202C20006EFE0020E4E70120704700BF783000208030002070000020134B1B680BBBF0B532
:202C400085B00446114B1B6813B9012005B0F0BD0F4E378A14F0E6FB02900425019502234E
:202C6000009305233A462946204614F0C6FD00232A4606F1140104F10C0014F040FE00207B
:202C8000E4E70120704700BF783000208030002070000020134B1B680BBBF0B585B00446DF
:202CA000114B1B6813B9012005B0F0BD0F4E378914F0B8FB029004250195022300930523E1
:202CC0003A462946204614F098FD00232A4606F10C0104F10C0014F012FE0020E4E701204E
:202CE000704700BF78300020803000207000002010B582B0044614F095FB00900723012284
:202D00000321204614F01CFD002002B010BD10B582B0044614F086FB009006230122114674
:202D2000204614F00DFD002002B010BD10B582B0044614F077FB0090022301221146204634
:202D400014F0FEFC002002B010BD10B582B0044614F068FB0090062315220421204614F0AF
:202D6000EFFC002002B010BD08B5034B01221A6015F040FF08BD00BF9030002010B586B07E
:202D8000044614F068FDA8B90C3400220DF11701204614F0B9FD01220DF11601204614F0E5
:202DA000B3FD02220DF11501204614F0ADFD002006B010BD4FF427730393064B0293064BCA
:202DC0000193064B0093064B227B0821012014F033F9D9E70C2004086020040884200408DF
:202DE000F81F0408104B1A8841F288339A4201D90120704710B584B0044614F013FB029050
:202E0000022301930093052315220421204614F0F4FC0022044B198804F10C0014F07CFDF8
:202E2000002004B010BD00BF9000002008B5554B1B78052B6BD8DFE803F003455689929A12
:202E40000023514A1370514A1360514A1360514A1360514A1360514A136014F0CBFA10B959
:202E6000494B01221A70484B1B7853B1464B1B78A3B1454B1B78002B49D0424B06221A70C9
:202E800045E0FFF7B1FD0146454A464812F0A0F80028EBD03C4B06221A70E7E713F052F834
:202EA000012807D0002014F0D5FA28B1364B03221A70DEE73C48F6E714F0A8FA314B0122AB
:202EC0001A70D6E714F05CF9012808D002281ED12C4B06221A702C4B03221A7017E0294B7E
:202EE00002221A7013E02A4B1B68BBB9274B1B68D3B9284B1B68EBB9274B1B6803BB2B4B81
:202F00001B6898472A4B1B689847FFF77FFC294B1B68002B34D11C4B187808BD1C4B00229B
:202F20001A6014F06DF9E1E7184B00221A6014F0BFF9DEE7174B00221A6014F015F9DBE793
:202F4000154B00221A6014F0FBF8D8E714F04CFA0D4B05221A700B4B06221A70D7E714F0A2
:202F600043FA0023074A1370074A1370CFE714F03BFA054B04221A70024B06221A70C6E7AE
:202F80000620CAE76A30002094300020703000207C300020883000206C30002090300020BC
:202FA00040020408CC020408C0D4010090C102208CC102208C300020014B01221A607047F6
:202FC0008C30002010B582B0044614F044FC48B900220DF1070104F10C0014F095FC0020B1
:202FE00002B010BDFFF7E8FFF9E710B582B0044614F031FC48B900220DF1070104F10C00F9
:2030000014F082FC002002B010BDFFF7D5FFF9E710B5044614F01FFC38B90022044904F162
:203020000C0014F076FC002010BDFFF7C5FFFAE796300020014B05221A7070476A30002032
:2030400008B512F0F9F808BD08B512F07DFD08BD08B512F00DF908BD08B512F0D9F808BD1E
:203060000138012800D9704708B5FFF7A5FF08BD08B54379F83B072B14D8DFE803F0040AB0
:20308000071313130D1013F047FC08BD13F080FDFBE713F075FAF8E712F07CF9F5E713F0BF
:2030A00003F9F2E7037A03F0BF03037263F07F03037201230370002343700323037314F03D
:2030C000E5F8E2E77047704710F0010F02D00B4B01221A6010F0020F02D0094B01221A6033
:2030E00010F0040F02D0074B01221A6010F0080F02D0054B01221A60704700BF7C300020E4
:2031000070300020883000206C30002008B5094B18701B78DBB2042B02D0072B04D008BDD6
:20312000054B1B689847FAE70021044813F0A6FEF5E700BF6B30002090C10220C82104082A
:2031400008B50146014813F099FE08BD7822040810B515F05FFD044615F056FDC3B2324A64
:203160001370252B14BF00220122012B14BF114642F0010199B9052B11D0202B0FD0652BBD
:203180000DD0902B0BD09E2B09D0952B07D0872B05D09F2B03D025490020086002E023491B
:2031A00001200860202B08BF42F001022AB9902B03D01F4A0021116002E01D4A01211160F7
:2031C000982B08D09A2B14D0932B20D0A32B18BF9B2B24D010BD40F201429442F2D1154A64
:2031E00004211180052111810621118207211183EAE740F201429442E6D10E4A0621118008
:20320000072111810821118209211183DCE70A48FFF796FF09490A4813F030FEDAE70749F4
:20322000074813F02BFED5E795300020783000207430002070000020092B0208692D020878
:20324000F8210408002070470020704730B585B0044614F0E7F8029000250195032300934E
:203260002B462A460221204614F0C7FA0A4B1B78A3720A4B1B78E3720C34094B1A7804219A
:20328000204614F049FB2A462946204614F044FB284605B030BD00BFA8300020A73000203A
:2032A000A930002030B585B0054614F0BBF802900024019404230093234622460221284692
:2032C00014F09BFA074B1B78AB72074B1B78EB722246214605F10C0014F01EFB204605B008
:2032E00030BD00BFA6300020A530002010B51C46124B1970124B1870124B1A70124B1B786E
:2033000013B1012B07D010BD104801F03BF90E4B01221A70F7E764230C4A0121002007F0A2
:2033200006F90028EFD02146094813F0A7FD074801F028F9044B00221A70E4E7A830002029
:20334000A7300020A9300020983000209C3000202023040810B5124B1870124B1970124B6D
:203360001B781BB11446012B07D010BD0F4801F009F90D4B01221A70F7E764230B4A012199
:20338000002007F0D4F80028EFD02146084813F075FD064801F0F6F8034B00221A70E4E745
:2033A000A6300020A5300020A4300020A03000204023040870B584B005460A4619B10129E7
:2033C0003FD004B070BD0B46042B0AD804A901EB430111F80C1CA94202D00133DBB2F3E735
:2033E0000122002AEDD1A5F10A03174803EB430400EB84018B684A68497810F82400FFF793
:2034000075FF8DF8045001238DF80530D9E70134E4B2042CD5D804AB03EB440313F80C3CE2
:20342000AB42F4D10022114604AB03EB440616F80B0CFFF78FFF002306F80C3C06F80B3C23
:20344000E5E70024E5E700BF9400002008B50AF091FB00F00DFC00F0A5FF08F0C1FB07F0C2
:20346000FDFF08F009FD07F025F907F0ABFC07F023FC01F059FA01F073F901F0F3F800F01C
:20348000B9FF01F05FF800F0DDFE07F0D5F808BD08B5022803D0B0F5805F03D008BD05F00D
:2034A00083F8FBE7014B1B689847F7E788C1022030B5A1B00D46002400947C22214601A8C9
:2034C00016F086FA2B46064A8021684600F0F9FA3C220449204609F0A7F821B030BD00BF4D
:2034E000602304087C230408034B0360034B0B6080231360704700BFAC320020AC300020A2
:20350000030A43EA002080B2704701604160013A82600023C360036143618361C36170473C
:2035200003207047704710B504460846236833B1A26893420CD3934212D0002010BD142197
:20354000C0B2FFF7EFFFE3680133E3600120F5E75A1C22601970E3680133E3600120EDE71E
:203560005A1C226000201870E8E70000F8B504460D460846FFF7D4FF00B9334D6069002851
:2035800002DD2B4600221CE02026237F13F0010F2CD0E2692D4B13402D4A934232D0A36956
:2035A000002B41D0297800293ED02046FFF7BBFF034628B30135A369013BA361EFE7013232
:2035C000013319780029FAD1904207DC00236361237F13F0020F04D12026D6E7821A6261A9
:2035E000F6E73026D1E76369013B63616369002BCFDD31462046FFF796FF03460028F2D1D5
:203600001846F8BD2846FDF73BF9A7698742C6DD3F1A002FC3D030212046FFF784FF0346F1
:203620000028EDD0013FF4E76369002B0ADD31462046FFF778FF03460028E1D06369013B38
:203640006361F1E70123DBE7C4230408FF0002000100020030B585B005460269807F40F0F2
:203660000200A87759B10B46A87F10F0010F11D0C80F0A2A2BD150B34B4201200BE03023C0
:203680008DF8043000238DF8053001A92846FFF76DFF1AE0002000218DF80F100A2A34D003
:2036A000102A24D0082A33D00DF10F0448B16B691BB12B7F13F0020F2DD12D2304F8013CB8
:2036C000013C21462846FFF751FF05B030BD0020E1E7303204F8012D1B09002BE6D003F084
:2036E0000F02092AF5DD697F3A390A44F1E70DF10F04F2E7B3FBF2F102FB1133303304F818
:20370000013D0B46002BF5D1D0E70DF10F04F9E70DF10F04F6E72D212846FFF704FF0028B6
:20372000D3D06B69013B6B61CBE72DE9F04106460D4600210C4688464FF0FF370B4603E088
:203740008846274600210133072B13DC35F8130010B901B91C460131072B14BF0022012217
:20376000002818BF42F00102002AECD08845E7DB0021E8E71023336161237377002416E061
:2037800008F1FF331C443A213046FFF7CCFE072C0CD13A213046FFF7C6FE07E035F814004A
:2037A000FFF7AEFE01463046FFF754FF0134072C08DCBC42E4D0002CF0DD3A213046FFF7A3
:2037C000B2FEEBE70120BDE8F0810EB410B58BB001460DAB53F8044B099300F5806201A8B9
:2037E000FFF793FE099A214601A800F023F804980BB0BDE8104003B07047000010B586B0D3
:203800000446CBB20193C1F307230093C1F307430A0E074902A8FFF7D8FFA37F43F00203A5
:20382000A37702A92046FFF7A1FE012006B010BDCC23040870B584B005460C460192264634
:2038400016F8014B252C23D1344614F8011B002900F0DC80252932D12846FFF764FE002873
:20386000EDD104B070BD14212046FFF75BFE3CB1EB680133EB60012402E0934218D0002418
:20388000002CEED0334613F8014B252C15D01E462B68002BE7D0AA689342EED25A1C2A60B8
:2038A0001C70002CECD0EB680133EB600124E7E75A1C2A6000241C70E2E71E46C4E7002324
:2038C0002B616B61AB61EB612D2908D030290BD114F8011B2A7F42F002022A77F6E7B41C80
:2038E000717801232B77F1E72A2951D114F8011B019B1A1D01921B686B612E294DD0AB6967
:203900000BB9013BAB61702964D0732972D0632900F081806C2900F08B804C2900F08F806F
:203920000A232B6161236B77642914BF00230123752914BF1A4643F00102002A40F086805A
:2039400010232B61782900F08F80582918BF782904D0A1F16F03012B3FF671AF582900F045
:2039600096806F2900F09680019B1A1D019219682846FFF76FFE002848D060E76B6903EB92
:2039800083035B006B6130390B446B6114F8011BA1F13003092BF1D9AFE7234613F8011BE5
:2039A0002A2911D1019B1A1D01921B68AB6161780234A4E7AA6902EB82025200AA613039F9
:2039C0000A44AA6113F8011BA1F13002092AF1D91C4694E72378692B97D16378702B94D157
:2039E0000234019B1A1D019219682846FFF79DFE60B124E7019B1A1D0192196801B927497E
:203A00002846FFF7B3FD00287FF419AF00212846FFF789FD25E7019B1A1D019219788DF89C
:203A20000C102846FFF77FFD00283FF41AAF06E714F8011BAB7F43F00403AB776DE714F86B
:203A4000011BAB7F43F00803AB7769E7AA7F63F30002AA77019B1A1D019219682846FFF783
:203A6000F9FD0028D2D0EAE62378692B7FF46DAF6378702B7FF469AF0234019B1A1D01925B
:203A800019682846FFF7BAFE0028BFD0D7E641236B7769E708232B6166E700BFD8230408B5
:203AA00030B589B014461D46421801466846FFF72CFD2A4621466846FFF7BCFE039809B034
:203AC00030BD0CB410B58AB00CAB53F8044B09934218014601A8FFF718FD099A214601A845
:203AE000FFF7A8FE04980AB0BDE8104002B0704738B5054610F068FD04462A46002115F0F9
:203B000067FF204638BD08B510F0DAFD08BD08B510F0F2F908BD000000B585B010F04CFBED
:203B200003460B4A02920B4A0192032200924FF40062094909480FF09DFF094B18604FF0C6
:203B4000FF31012010F0ACFB05B05DF804FB00BF1833002070330020E0230408FD3B020826
:203B60000433002000B58BB028220021684615F02FFF68460AF0CAFE01F056FC48B9039B60
:203B8000AA2B09D0CC2B0DD0094A0021032008F0DDFC0BB05DF804FB064A0749032008F071
:203BA000D5FCF6E7054A0021032008F0CFFCF0E72C240408E8230408082404080C24040843
:203BC00008B5002008F0B6FC0020FFF7A5FF08F0B9FCFFF7C7FF0020FEF7EEFD044B0122C9
:203BE0001A60002007F07EF900200FF0B9FF08BD0C33002008B500F0B5FA08BD10B584B0A8
:203C0000044606F0E3FC164B01221A704FF00052144B1A6001AB07CA03C31A7000238DF898
:203C20000D30114901A8FCF7AFFC18B10F4B5B79042B07D1002003F081FCFFF7DBFF012027
:203C400003F07CFC2CB1002302221946204610F063FB06F0DBFC0020FFF759FFF9E700BFD8
:203C60005C2E0020083300204C2404081033002010B5B4B03022002128A815F0A9FE002424
:203C8000239424942594269427948022214603A815F09EFE0CF088F9334B1A6F22F0180282
:203CA0001A671A6C42F080521A641B6C03F080530193019B2D4A136823F4404343F4804378
:203CC0001360136803F440430293029B0623289301232A932B9310232C9302232E932F942C
:203CE00008223092902231923293339328A80CF0A1F908BB0CF060F920BB0F232393022372
:203D00002493002325934FF4A05326932793042123A80CF0FBFBD8B94CF26003039300239B
:203D20001A931B9312934FF480730D9303A80CF0E7FC98B934B010BD4D220D49204608F0FE
:203D400073FCD7E753220A49002008F06DFCD4E760220749002008F067FCDDE76E22044944
:203D6000002008F061FCE5E700380240007000405824040808B503680C4A934209D0B3F180
:203D8000804F05D00A4A934206D00A4A934208D008BD09F0FBFEFBE7074A13680133136073
:203DA000F6E7064A136801331360F1E70004014000080040000C0040745300207053002039
:203DC000014B1868704700BF10BC0020014B1868704700BF7053002042F210707047000025
:203DE000034BD969034A11601A6A034B1A60704700000208F0000020F400002010B50A4B2A
:203E00001C6B0623094A0121A020A047012802D04FF0FF3010BD054B1978054A11605A782D
:203E2000044B1A600020F5E77C01002010330020E8000020EC00002010B5104B1C6B0623D9
:203E40000F4A0121A020A047012802D04FF0FF3010BD0B4A0B4B1B6813700B4B1B685370BD
:203E6000064BDC6A06230121A020A047012802D04FF0FF30ECE70020EAE700BF7C01002030
:203E800010330020F0000020F400002008B5104B1A68104B1B689A4213D10F4B1A680F4B2D
:203EA0001B689A4206D00E4A0E49032008F04EFB01200CE00C4A0B49032008F047FB002086
:203EC00005E00A4A0749032008F040FB012008BDF0000020E8000020F4000020EC000020E5
:203EE000D0240408C0240408A0240408F82404084FF0FF307047000010B50246064BDC6A11
:203F0000202389B2A020A047012802D04FF0FF3010BD0020FCE700BF7C01002010B588B0EA
:203F200004460346074A0849032008F00FFB2022FF21684615F04CFD21466846FFF7DCFFE3
:203F400008B010BD20250408C024040870B5044601462C48FFF7CCFF50B90546093C082CE3
:203F60001DD8DFE804F00D1C1C1C1E2E1C1C3E00254A2649012008F0E9FA4FF0FF350EE033
:203F8000204E234CB446BCE80F000FC49CE80F0084E80F0020220021304615F019FD284654
:203FA00070BD184E1B4CB446BCE80F000FC49CE80F0084E80F0020220021304615F008FD96
:203FC000EDE7104E144CB446BCE80F000FC49CE80F0084E80F0020220021304615F0F8FCEF
:203FE000DDE7084E0D4CB446BCE80F000FC49CE80F0084E80F0020220021304615F0E8FCFE
:020000040802F0
:20400000CDE700BF7853002038250408C024040818540020385400205854002078540020F9
:2040200030B4093808280ED8DFE800F0050D0D0D0F180D0D2100124C124D0FCD0FC495E817
:204040000F0084E80F0030BC70470F4C0F4D0FCD0FC495E80F0084E80F00F4E70C4C0D4D39
:204060000FCD0FC495E80F0084E80F00EBE70A4C0A4D0FCD0FC495E80F0084E80F00E2E78C
:204080009853002018540020B853002038540020D853002058540020F85300207854002044
:2040A00070B50446A0F10903082B13D8DFE803F005121212182612123400234D2022002178
:2040C000284615F085FC214E0FCE0FC596E80F0085E80F0021461C48FFF70EFF60BB70BDAD
:2040E000194D20220021284615F072FC184E0FCE0FC596E80F0085E80F00EBE7124D202283
:204100000021284615F064FC124E0FCE0FC596E80F0085E80F00DDE70B4D202200212846A4
:2041200015F056FCAC460C4D0FCDACE80F0095E80F008CE80F00CDE7084A0949012008F0DE
:2041400005FA4FF0FF30CAE77853002098530020B8530020D8530020F853002054250408E5
:20416000C024040810B582B02D4C2E4A2146032008F0ECF9FFF734FE2B4B1B6800932B4BD6
:204180001B682B4A2146032008F0E0F9FFF736FE284B1B680093284B1B68284A2146032027
:2041A00008F0D4F9FFF772FE012806D0244A1C49032008F0CBF902B010BD0920FFF7C6FEC1
:2041C0000920FFF7ABFE0920FFF72AFF0920FFF767FF0D20FFF7BAFE0D20FFF79FFE0D2082
:2041E000FFF71EFF0D20FFF75BFF0E20FFF7AEFE0E20FFF793FE0E20FFF712FF0E20FFF751
:204200004FFF1120FFF7A2FE1120FFF787FE1120FFF706FF1120FFF743FFFFF70DFECAE796
:20422000C024040870250408F4000020F00000208C250408EC000020E8000020A82504081F
:20424000C025040808B500210F4800F051FB00210E4800F04DFB0121052000F037FA0121C3
:20426000042000F033FA0021022000F02FFA0121084600F02BFA0121002000F027FA0021A8
:20428000032000F023FA08BD94550020AC55002008B5802101480AF0E3FC08BD0000024078
:2042A000B5EEC00AF1EE10FA25DBDFED137AB4EEE70AF1EE10FA1ED808B5B0EE677AC0EEF3
:2042C000077A9FED0E7A67EE877AFCEEE77A10B1012808D008BD17EE903A00221146084889
:2042E00009F0EAFFF6E717EE903A00221021044809F0E2FFEEE7704733335340000080456D
:204300009884002010B507F053F80020B7EE040AFFF7C6FF01209FED070AFFF7C1FF064C06
:204320000021204609F094FF1021204609F090FF10BD00BFB81E05409884002008B5012288
:204340001146034807F0B2FA024B01221A7008BD001C02409954002008B5054B1B78012B22
:2043600001D0002008BD012102480AF079FCF9E799540020001C024008B500220521072035
:2043800009F0ECFE072009F01FFF01220221034807F0F0FA024B01221A7008BD001C02406D
:2043A0009854002008B5FFF7ADFFFFF7C7FFFFF7E3FF08BD08B5072009F014FF02210348DB
:2043C00007F044FB024B00221A7008BD001C02409854002008B5054B1B78012B01D00020C2
:2043E00008BD022102480AF03BFCF9E798540020001C024008B500230C4A13700C4A13707E
:204400000C4A13700C4A137006F058FF03220B490B4809F093FC04220A490B4809F08EFCFA
:2044200004220A490A4809F089FC08BDCE540020B4540020B5540020B65400209C540020A1
:20444000C0830020A454002008840020AC54002050840020114B1A88114802815A884281A2
:20446000104A918801821188C181528842820E4AD188018011888180998841809188C180C5
:2044800052888281DB8883820023084A1370084A1370084A1370084A13707047AC54002089
:2044A000B85400209C540020A4540020B4540020B5540020B6540020CE540020014B18780F
:2044C000704700BFCE540020024B1888024B1881704700BFAC540020B85400200368124AC8
:2044E000934212D0114A934215D0114A934216D0104B1B7843B1104B1B782BB10F4B1B7841
:2045000013B10F4B01221A70704701230B4A13700B4A13707047074B01221A70E8E7064B6F
:2045200001221A70E4E700BF002201400020014000210140B4540020B5540020B6540020A3
:20454000CE54002008B507F063FE07F087FE002202211E2009F002FE1E2009F035FE002280
:204560000221322009F0FAFD322009F02DFE03480DF04EFA02480DF04BFA08BD888900204E
:20458000D489002010B50446FFF720FC206010BD38B505460C46FFF719FC401B044BA3FB53
:2045A0000030B4EBD00F01D9002038BD0120FCE7CDCCCCCC38B505460C46FFF707FC401B4B
:2045C000642303FB00F0A04201D2002038BD0120FCE7837903B1704710B5044681880068B1
:2045E00007F034FA0022A188206807F05FF90123A37110BD08B50022818800680AF037FBF3
:2046000008BD08B50122818800680AF030FB08BD08B5844600680A4B984206D0022300225F
:20462000BCF8041007F058F908BDBCF80410B1F5807FF3D10223012207F04EF9F4E700BF54
:2046400000080240837903B9704710B504468188006807F0FBF92046FFF7DAFF0023A371CA
:2046600010BD000010B500241EE0114B53F82400104A04EB4403D900531850500E4931F8C7
:2046800014109980002199710C4999600C49D9600C4919610C49596104EB4403D800104496
:2046A000FFF7B6FF0134E4B2072CDED910BD00BFE0250408D0540020002604080346020834
:2046C000F5450208D34502084546020810B5224B187001291BD0022931D001B110BD1F4CFA
:2046E00000EB400304EBC3035B6900EB400004EBC0009847184B187800EB400304EBC30384
:204700009B6800EB400004EBC0009847E6E7134C00EB400304EBC3035B6900EB400004EBF0
:20472000C00098470C4B187800EB400304EBC303DB6800EB400004EBC0009847CEE7074A0E
:2047400000EB400302EBC3031B6900EB400002EBC0009847C2E700BF90550020D05400208C
:20476000F8B5194D194F2F604FF48041A980AF604FF40043AB810024AC73EC732C616C6145
:2047800023462246384607F0A7F823462246A989A86807F0A1F80E4E37604FF48051B18059
:2047A000B7604FF40053B381AC73EC733461746123462246384607F08FF823462246B18958
:2047C000B06807F089F8F8BDAC550020000402409455002010B50446837BC27B934206D02F
:2047E00001694069FFF7D4FE002834D110BD032B10D0012B19D0022B22D0002BF6D100228E
:20480000818800680AF033FA0022A189A0680AF02EFAEBE70022818800680AF028FA0122E6
:20482000A189A0680AF023FAE0E70122818800680AF01DFA0022A189A0680AF018FAD5E7A7
:204840000122818800680AF012FA0122A189A0680AF00DFACAE7A27B244B1B789A4212D0DA
:20486000E17B8B4213D0214B1A70204B1B78032B10D0012B19D0022B22D063B304F11400D7
:20488000FFF780FEB2E7E27B184B1A70EDE7174B1A70EAE70022A18820680AF0E8F901225F
:2048A000A189A0680AF0E3F9E8E70122A18820680AF0DDF90022A189A0680AF0D8F9DDE79A
:2048C0000122A18820680AF0D2F90122A189A0680AF0CDF9D2E70022A18820680AF0C7F9E4
:2048E0000022A189A0680AF0C2F9C7E7C45500208173C17370478173C2730361704710B5E0
:2049000082B00446C169806907F0A0F8236A009303230022E169A06907F05CF86168206822
:204920000DF0EAFB02B010BD10B5074C204607F079F92046FFF7E3FF044C204607F072F9D9
:204940002046FFF7DCFF10BDB4870020D887002010B50446416800680DF076FCE169A06997
:2049600007F074F80022E169A06906F09FFF10BD08B5214807F0F4FE07F0E2FE00B908BD9A
:2049800007F0C2FE14F0C4FF1C4B18601C4B00221A70012813D0022815D0032817D004284E
:2049A00019D005281BD0F0B11728E8D1154A1649032007F0CBFD154B4D221A70DFE7134B40
:2049C00001221A70DBE7114B02221A70D7E70F4B03221A70D3E70D4B04221A70CFE70B4BC9
:2049E00005221A70CBE70A4A0749032007F0AEFD012007F099FEC2E71026040804560020D7
:204A0000D9550020D0260408C8260408D8550020B426040810B5664807F0A2FE654B1B78CC
:204A200043B1644B1B78012B29D0624B1B78022B73D010BD07F084FE0028F2D007F064FEE2
:204A400003465D4A5D49032007F080FD07F05CFE14F05AFF51EC100BFCF770FC584B1860A9
:204A6000102002F049FA02F043FA0289554B1A80554807F075FE4F4B01221A70D9E707F0D8
:204A80005FFE0028D1D007F03FFE03464F4A4B49032007F05BFD07F037FE14F035FF51EC33
:204AA000100BFCF74BFC4A4C2060102002F024FA02F01EFA0289474B1A80414BD3ED006AD4
:204AC00094ED006A36EE666A3E4B1B88D21A07EE902AB8EEE77AC6EE075A3F4CC4ED005A7E
:204AE00007EE903AF8EEE77A67EEA57A76EEE77A3A49C1ED007A04224FF4986002F0B6FCC7
:204B00000422214640F2C44002F0B0FC344807F027FE284B02221A708BE707F011FE0028DB
:204B200087D007F0F1FD03462E4A2449032007F00DFD07F0E9FD14F0E7FE51EC100BFCF7D6
:204B4000FDFB294C2060102002F0D6F902F0D0F90289264B1A801E4BD3ED006A94ED006AA8
:204B600036EE666A1B4B1B88D21A07EE902AB8EEE77AC6EE075A184CC4ED005A07EE903A53
:204B8000F8EEE77A67EEA57A76EEE77A1349C1ED007A04224FF49C6002F068FC04222146C9
:204BA00040F2E44002F062FC114B00221A7040E7E0260408D95500204827040868270408AA
:204BC000CC5500202256002078270408E0270408D05500202456002010560020145600204F
:204BE000042804086C280408C855002020560020D855002010B5664807F0B2FD654B1B7861
:204C000043B1644B1B78012B29D0624B1B78022B73D010BD07F094FD0028F2D007F074FDE2
:204C200003465D4A5D49032007F090FC07F06CFD14F06AFE51EC100BFCF780FB584B18608B
:204C4000112002F059F902F053F94288554B1A80554807F085FD4F4B01221A70D9E707F089
:204C60006FFD0028D1D007F04FFD03464F4A4B49032007F06BFC07F047FD14F045FE51EC06
:204C8000100BFCF75BFB4A4C2060112002F034F902F02EF94288474B1A80414BD3ED006A85
:204CA00094ED006A36EE666A3E4B1B88D21A07EE902AB8EEE77AC6EE075A3F4CC4ED005A9C
:204CC00007EE903AF8EEE77A67EEA57A76EEE77A3A49C1ED007A04224FF4A06002F0C6FBCE
:204CE0000422214640F2045002F0C0FB344807F037FD284B02221A708BE707F021FD00287D
:204D000087D007F001FD03462E4A2449032007F01DFC07F0F9FC14F0F7FD51EC100BFCF7B7
:204D20000DFB294C2060112002F0E6F802F0E0F84288264B1A801E4BD3ED006A94ED006A58
:204D400036EE666A1B4B1B88D21A07EE902AB8EEE77AC6EE075A184CC4ED005A07EE903A71
:204D6000F8EEE77A67EEA57A76EEE77A1349C1ED007A04224FF4A46002F078FB04222146D0
:204D800040F2245002F072FB114B00221A7040E790280408D9550020FC2804082029040848
:204DA000CC5500202256002034290408A0290408D055002024560020085600200C560020FD
:204DC000C8290408342A0408C855002020560020D855002010B5664807F0C2FC654B1B78E1
:204DE00043B1644B1B78012B29D0624B1B78022B73D010BD07F0A4FC0028F2D007F084FCE3
:204E000003465D4A5D49032007F0A0FB07F07CFC14F07AFD51EC100BFCF790FA584B18606D
:204E2000122002F069F802F063F8028A554B1A80554807F095FC4F4B01221A70D9E707F0B7
:204E40007FFC0028D1D007F05FFC03464A4A4B49032007F07BFB07F057FC14F055FD51ECDE
:204E6000100BFCF76BFA494C2060122002F044F802F03EF8028A464B1A80414BD3ED006AB5
:204E800094ED006A36EE666A3E4B1B88D21A07EE902AB8EEE77AC6EE075A3E4CC4ED005ABB
:204EA00007EE903AF8EEE77A67EEA57A76EEE77A3949C1ED007A04224FF4A86002F0D6FAD6
:204EC0000422214640F2445002F0D0FA334807F047FC284B02221A708BE707F031FC00282F
:204EE00087D007F011FC0346234A2449032007F02DFB07F009FC14F007FD51EC100BFCF7A3
:204F00001DFA274C2060122001F0F6FF01F0F0FF028A244B1A801D4BD3ED006A94ED006A7D
:204F200036EE666A1A4B1B88D21A07EE902AB8EEE77AC6EE075A174CC4ED005A07EE903A91
:204F4000F8EEE77A67EEA57A76EEE77A1249C1ED007A04224FF4AC6002F088FA04222146D8
:204F600040F2645002F082FA0F4B00221A7040E7582A0408D9550020C02A0408E02A0408C8
:204F8000CC55002022560020F42A0408D055002024560020185600201C5600205C2B04087C
:204FA000C855002020560020D855002010B57C4807F0D6FB7B4B1B786BB17A4B1B78012B87
:204FC0002ED0784B1B78022B78D0764B1B78032B00F0998010BD07F0B3FB0028EDD007F02F
:204FE00093FB0346704A7149032007F0AFFA07F08BFB14F089FC51EC100BFCF79FF96C4B03
:205000001860132001F078FF01F072FFC289694B1A80694807F0A4FB624B01221A70D9E721
:2050200007F08EFB0028CCD007F06EFB0346634A5E49032007F08AFA07F066FB14F064FCD5
:2050400051EC100BFCF77AF95D4C2060132001F053FF01F04DFFC2895A4B1A80544BD3EDCD
:20506000006A94ED006A36EE666A524B1B88D21A07EE902AB8EEE77AC6EE075A524CC4EDA1
:20508000005A07EE903AF8EEE77A67EEA57A76EEE77A4E49C1ED007A04224FF4B06002F04D
:2050A000E5F90422214640F2845002F0DFF9484807F056FB3B4B02221A708BE707F040FB05
:2050C000002882D007F020FB0346424A3749032007F03CFA07F018FB14F016FC51EC100B27
:2050E000FCF72CF93C4B1860132001F005FF01F0FFFEC289394B1A80394807F031FB294B02
:2051000003221A7066E707F01BFB00283FF462AF07F0FAFA0346334A2449032007F016FAD2
:2051200007F0F2FA14F0F0FB51EC100BFCF706F92D4C2060132001F0DFFE01F0D9FEC28946
:205140002A4B1A80244BD3ED006A94ED006A36EE666A224B1B88D21A07EE902AB8EEE77A16
:20516000C6EE075A184CC4ED005A07EE903AF8EEE77A67EEA57A76EEE77A1449C1ED007AE7
:2051800004224FF4B46002F071F90422214640F2A45002F06BF9164B00221A701AE700BF60
:2051A000C42B0408D9550020242C0408442C0408CC55002022560020582C0408B82C040875
:2051C000D055002024560020DC550020E0550020DC2C04083C2D0408D455002026560020DC
:2051E000602D0408C02D0408C855002020560020D85500202C4B1B7803B170472DE9F0473B
:20520000DFF8DCA0294BCAF800302949294B0B60294E2A4A32602A4F2A4B3B60DFF8C48063
:205220002948C8F80000DFF8C0902848C9F80000274C2260274D2B6004224FF4BC6002F07A
:2052400015F90422514640F2E45002F00FF9042249464FF4C06002F009F90422414640F238
:20526000046002F003F9042239464FF4C46002F0FDF80422314640F2246002F0F7F804228F
:2052800029464FF4C86002F0F1F80422214640F2446002F0EBF8104807F062FA0F4B0022FA
:2052A0001A70BDE8F08700BFD955002039B4803FE8550020128350BFF4550020355E823FD1
:2052C000F8550020E71D08C1E4837E3F772DE13EEC550020F0550020E42D0408D85500207D
:2052E000E4550020FC5500200056002008B500F093F801281DD1134B1B78052B15D8DFE84A
:2053000003F00306090C0F12FFF732FB19E0FFF781FB16E0FFF76EFC13E0FFF75BFD10E046
:20532000FFF744FE0DE0FFF765FF064B00221A7007E0054A0549032007F008F9012007F03A
:20534000F3F908BDD8550020FC2D0408182E040808B5044B1860044B01221A700348FFF707
:2053600011F908BD30560020285600202C560020014B1878704700BF2856002070470000D1
:2053800008B501F0B5FD4389064A1380B3F5C86F03D2054B00221A7008BD034B01221A708E
:2053A000FAE700BF1A5C00202856002008B5F2EE047A60EE277A17EE900AFBF785FC41ECD0
:2053C000100B14F051FA51EC100B0022034BFBF7FDFDFBF7B3FF00EE100A08BD00002440DA
:2053E00010B584B0044612F01DF80290042301930523009300231A460121204612F0FDF948
:205400000223E3720022012104F10C0012F089FA002004B010BD0000024B00221A7001208D
:20542000704700BF5A5B0020014B1878704700BF5A5B00202DE9F84F9F4B186004229F492D
:205440004FF4986002F044F8DFF880B30422594640F2C44002F03CF8042299494FF49C6071
:2054600002F036F80422974940F2E44002F030F8042295494FF4A06002F02AF80422934939
:2054800040F2045002F024F8042291494FF4A46002F01EF804228F4940F2245002F018F883
:2054A00004228D494FF4A86002F012F804228B4940F2445002F00CF8042289494FF4AC60AC
:2054C00002F006F80422874940F2645002F000F8042285494FF4B06001F0FAFF04228349F3
:2054E00040F2845001F0F4FF042281494FF4B46001F0EEFF04227F4940F2A45001F0E8FFB1
:2055000004227D494FF4B86001F0E2FF04227B4940F2C45001F0DCFF042279494FF4BC602F
:2055200001F0D6FFDFF8A8A20422514640F2E45001F0CEFFDFF89C92042249464FF4C46082
:2055400001F0C6FFDFF890820422414640F2246001F0BEFF6B4F042239464FF4C06001F0E8
:20556000B7FF694E0422314640F2046001F0B0FF664D042229464FF4C86001F0A9FF644CEF
:205580000422214640F2446001F0A2FFDBF80020604B1A60494B1A685F4B1A60494B1A68AE
:2055A0005E4B1A60464B1A685D4B1A60474B1A685C4B1A60444B1A685B4B1A60454B1A681B
:2055C0005A4B1A60424B1A68594B1A60434B1A68584B1A60404B1A68574B1A60414B1A681B
:2055E000564B1A603E4B1A68554B1A603F4B1A68544B1A603C4B1A68534B1A603D4B1A681B
:20560000524B1A603A4B1A68514B1A603C4B1A68504B1A60DAF800204F4B1A60D9F8002041
:205620004E4B1A60D8F800204D4B1A603A684D4B1A6032684C4B1A602A684C4B1A602268C9
:205640004B4B1A6001234B4A13804B4A13804B4B4FF6AA721A804A4B32221A800024494BFA
:205660001C80494B1C6010224849494814F006FB10224849484814F001FB484B4AF6AA2233
:205680001A80474B1C80474B1C80474B4AF6BB221A80464B1A68464B1A60464B464A5A60D2
:2056A000464A1A60464ADA60464A9A6028221A82454B1C70BDE8F88FF85B0020F056002085
:2056C000EC560020E4560020E0560020D8560020DC560020D456002000570020F8560020E9
:2056E000FC560020F4560020B0560020A8560020AC560020A4560020A05600209C56002026
:20570000B8560020D0560020CC560020C0560020BC5600207856002080560020745600209D
:205720007C5600206856002070560020645600206C560020885600209056002084560020F9
:205740008C5600203856002040560020345600203C56002048560020445600205856002041
:2057600054560020605600205C560020505600204C560020585700205A5700204E570020CA
:20578000465700204857002054570020202E040874570020302E0408645700205057002071
:2057A0004A570020605700204C5700205C570020045700203C2C00209A99C141CDCCC041E9
:2057C0009A9921410000C44188570020E8560020B4560020C8560020C456002008B51E2233
:2057E0000249202001F074FE08BD00BFB45B002008B5094B1A8D094B1B889A4204D1064B57
:205800001A8D064B1A8008BD022205494FF4E07001F02CFEF3E700BF845B00200001002058
:20582000AC5B002008B5094B5A8D094B1B889A4204D1064B5A8D064B1A8008BD0222054947
:205840004FF4E17001F012FEF3E700BF845B002002010020AE5B002008B5114B1B78012BF7
:2058600000D008BD4FF47A710E4B1868FEF790FE70B90D4B1B78022BF3D90A48FEF782FE35
:205880000023094A1370064A137008F0BDFCE8E70448FEF777FE044A137801331370E8E7A7
:2058A0003C5B00200C57002044570020064B1B78012B04D013B9054B01221A607047034A52
:2058C00000211160F6E700BF455700209456002008B508490848FAF757FE20B905490648BB
:2058E00014F02EF908BD102202494FF4D07001F0BDFDF3E7745700201401002008B5084905
:205900000848FAF741FE20B90549064814F018F908BD102202494FF4D87001F0A7FDF3E741
:20592000645700200401002010B5064C0123A38503F052F90023A385034A0449032006F0C8
:2059400005FE10BD845B0020402E0408582E0408064BDB8D012B04D013B9054B01221A70EA
:205960007047034B02221A70704700BF845B00208857002038B52D4C022204F128014FF415
:20598000E07001F0A5FD022204F126014FF4927001F09EFD022204F12A014FF4E17001F04A
:2059A00097FD022204F124014FF4937001F090FD042204F120014FF4947001F089FD102225
:2059C0001B4940F2252001F083FD102219494FF4D07001F07DFD102217494FF4D87001F0EB
:2059E00077FD04221549A02001F072FD012214494FF4E27001F06CFD124D0422A9184FF497
:205A0000907001F065FD6A680F4B1A60628D0F4B1A70B4F926200E4B1A80B4F924200D4B8B
:205A20001A80226A0C4B1A8038BD00BF845B00200C5900207457002064570020D85B0020FE
:205A4000455700207C5B00203459002039590020305900201C5900201E59002008B50C4B4B
:205A60001A6801321A600B4BA3FB0213DB0A4FF4616101FB132303B108BD05494B6803F560
:205A8000616341F8043F0422A02001F0EFFCF3E7D45B0020C5B3A291002306E021490A684B
:205AA00022F001020A600133DBB2022B38D8012B0DD0022B1BD0002BF5D11B4A1288142A1A
:205AC000ECD818490A6842F001020A60EBE7164A52683C2A05D813490A6842F002020A60F3
:205AE000E1E710490A6822F002020A60DBE70F48C188C1EB01118A0001890A440C490A6052
:205B0000094949688A4205D306490A6842F004020A60C8E703490A6822F004020A60C2E7E3
:205B2000704700BF54570020BC7E00200C59002084570020002326E02C48408D48B10420C3
:205B4000121A91421DDA2A490A6822F001020A6017E00220F4E7274A1188244A928C91428E
:205B60000AD8234A526812F0020F05D020490A6842F002020A6004E01D490A6822F00202E7
:205B80000A600133DBB2022B2FD8012BE3D0022B14D0002BF5D1184AB2F91010134AB2F990
:205BA00026209142C8DB1248406810F0010FC3D00F490A6842F001020A60E2E70D4A516842
:205BC0000A4A126A91420AD8094A526812F0040F05D007490A6842F004020A60D1E70449E0
:205BE0000A6822F004020A60CBE77047845B00207C5B0020BC7E0020FC5B0020064BD3ED70
:205C0000007A9FED067A67EE877AFCEEE77A17EE903A98B2704700BFDC5B00200000C8426D
:205C2000064BD3ED027A9FED067A67EE877AFCEEE77A17EE903A98B2704700BFDC5B002044
:205C40000000C842064BD3ED037A9FED067A67EE877AFCEEE77A17EE903A98B2704700BF70
:205C6000DC5B00200000C842064BD3ED017A9FED067A67EE877AFCEEE77A17EE903A98B271
:205C8000704700BFDC5B00200000C842034B93ED010ADFED037A20EE270A7047DC5B0020BE
:205CA0000000C842034B93ED030ADFED037A20EE270A7047DC5B00200000C842034B93ED91
:205CC000040ADFED037A20EE270A7047DC5B00200000C842054BB3F91630642202FB03F35B
:205CE00000EE103AB8EEC00A704700BFDC5B002010B489B0294A0023D381938113805380CE
:205D00009380D38013815381254A32211180254A14211180244A782111600AE0234AFF213E
:205D200022F8331002EBC3020021518051600133DBB23F2BF2D91E4A0023138053809380B7
:205D40001C4A13601C4C238463841C4B0DF1100C0FCBACE807002CF8023B1B0C8CF8003042
:205D6000A44608AB13E90F00ACE807002CF8023B1B0C8CF80030124BEC460FCBACE80700A0
:205D80008CF8003004F1100C6B460FCBACE807008CF8003009B05DF8044B704734570020A5
:205DA000585B0020505B0020545B00203C590020405B0020485B002010570020702E040812
:205DC000802E040808B50388A3F291133C2B00F20581DFE813F03D0049006A007600030175
:205DE000030103010301030103010301030103010301030103010301030103010301030163
:205E0000030103010301030103010301030103010301030103010301030103010301030142
:205E2000030103010301030103010301030103010301030103010301030103010301030122
:205E4000030185009100A900B5000301C500F700654B5B68072B03D8644B01221A60C0E09E
:205E6000624B00221A60BCE0614B5B8D73B9604BB3F92630143B9BB23C2B03D85B4B012229
:205E80001A60AEE0594B00221A60AAE0584BB3F92630443B9BB26C2B03D8544B01221A6011
:205EA0009FE0524B00221A609BE0514B9B8C642B03D84E4B01221A6093E04C4B00221A60A6
:205EC0008FE04B4B1B6AF03B43F25072934203D8464B01221A6084E0444B00221A6080E049
:205EE000444B1B88012B03D9404B00221A6078E03E4B01221A6074E03E4B5B88012B03D9FB
:205F00003A4B00221A606CE03A4B9B88012BF7D8384BDB883C2BF3D8364B1B893C2BEFD806
:205F2000324B01221A605CE0324B5B89012B03D92E4B00221A6054E02C4B01221A6050E015
:205F40002C4B9B89012B03D9284B00221A6048E0284BDB893C2BF7D8244B01221A6040E02E
:205F6000254B1B68012B13D9234B5B68012B15D9214B9B68012B17D91F4BDB68012B19D975
:205F80001D4B1B69012B19D9184B00221A6028E0164B01221A60FFF7ABFEE5E7134B012206
:205FA0001A60FFF7A5FEE3E7104B01221A60FFF79FFEE1E70D4B01221A60E1E70B4B01227B
:205FC0001A600EE00D4B1B78012B03D9074B00221A6006E0054B01221A6002E0034B002253
:205FE0001A60024B186808BD7C5B00204C5B0020845B00200C5900205C5B002045570020C0
:020000040802F0
:2060000010B5FFF7DFFEA0B10C4BB3F926200C4BB3F900309A4210D0084C022204F12601CB
:206020004FF4927001F022FAB4F92620044B1A8003E0034B1A88014BDA8410BD845B0020E9
:206040003059002010B5FFF7BDFE98B10C4BB3F900200C4B9B8C9A4210D00A4C022204F10C
:2060600024014FF4937001F001FAB4F92420044B1A8003E0024B1A88024B9A8410BD00BF26
:206080001C590020845B002010B5FFF79BFE90B10C4BB3F900200C4B1B6A9A4210D00A4CC6
:2060A000042204F120014FF4947001F0DFF9226A044B1A8004E0034BB3F90020024B1A6258
:2060C00010BD00BF1E590020845B002038B5FFF779FE90B110220C490C4813F047FC88B1A9
:2060E000094C1022214640F2252001F0BFF9074D94E80F0085E80F0004E0034C034B0FCBDC
:2061000084E80F0038BD00BF0C5900202059002008B5FFF757FE18B9094B00221A7008BD94
:20612000012207494FF4E27001F0A0F9054B01221A700548FEF726FA044B00221A70EEE79E
:20614000455700203C5B00200C5700204457002010B5FFF737FE80B10A4B5A680A4B1B687E
:206160009A420ED0074C0422A1184FF4907001F07DF96268044B1A6003E0034B1A68014BF7
:206180005A6010BD7C5B00203459002008B50021014810F073FE08BDA42E0408644B1B7857
:2061A00033B9644A0021116051609160D1601161012B00D0704770B5FFF704FEF0B15D4B55
:2061C0001B68012B1BD05B4B00221A605B68012B22D0584B00225A609B68012B6DD0554B77
:2061E00000229A60DB68012B6AD0524B0022DA601B69012B70D04F4B00221A6170BD4E4CF3
:206200001022214640F2252001F030F94B4D94E80F0085E80F00D6E7494E022231464FF483
:20622000927001F023F9474D022229464FF4937001F01CF9444C042221464FF4947001F087
:2062400015F9424B3288DA842A889A8422681A62BFE705F11600400180B220223C4901EBDD
:20626000C40101F003F90434E4B20135EDB23F2CEFD9374C4FF400752A4621463548FAF716
:20628000DFF82A4621463448FAF7DAF8334C062221464FF4287001F0E9F8314B20681860DA
:2062A000A2889A802F4C0422216840F2A72001F0DDF822682C4B1A6091E700252C46D6E76A
:2062C0002A4B01221A702A48FEF75CF9294B00221A70FFF75BFF88E7274C022204F1200154
:2062E0004FF4E17001F0C2F8022204F122014FF4E07001F0BBF8102221464FF4D07001F0DF
:20630000B5F804F11005102229464FF4D87001F0ADF8228C0D4B5A85628C1A8521461748CC
:2063200013F00EFC2946164813F00AFC63E700BF455700205C5B0020345700200C590020AE
:20634000585B0020505B0020545B0020845B00203C5900207C7900207C7B0020405B002035
:20636000847D0020485B0020207F00203C5B00200C57002044570020105700207457002013
:20638000645700200000000010B5334B5B8D012B09D0324B9880324B1B78012B37D02F4BA0
:2063A000B3F9040010BDFAF77DFC27A3D3E90023FAF7E2FC00222B4BFAF728FBFAF776FF6C
:2063C00000B2264B58809880254B1B78002BE6D1214CB4F92600FAF765FC1BA3D3E9002396
:2063E000FAF7CAFC00221F4BFAF710FBFAF75EFF00B21A4B1881214621F8260F02224FF444
:20640000927001F033F8164B01221A70C7E7124CB4F926002038FAF745FC0DA3D3E9002358
:20642000FAF7AAFCFAF742FF00B20C4BD880214621F8260F02224FF4927001F017F8084BC1
:2064400000221A70ABE700BFCDCCCCCCCCCCFC3F721CC7711CC7E13F845B0020705B002088
:206460003959002000004040DFED357A20EE270ADFED347A20EE270ADFED337A30EE670A6F
:20648000B2EE047AC0EE077A0138032816D8DFE800F0021B2F432D4B93ED007A67EE277AAF
:2064A0002B4B93ED007A77EE877AFDEEE77A17EE903A1BB207EE903AF8EEE77AFDEEE77ACC
:2064C00017EE903A18B27047224B93ED007A67EE277A214B93ED007A77EE877AFDEEE77AF7
:2064E00017EE903A1BB207EE903AF8EEE77AE5E71A4B93ED007A67EE277A194B93ED007A7B
:2065000077EE877AFDEEE77A17EE903A1BB207EE903AF8EEE77AD1E7124B93ED007A67EEC3
:20652000277A114B93ED007A77EE877AFDEEE77A17EE903A1BB207EE903AF8EEE77ABDE76C
:2065400000404E45000080390000FA43B4560020B8560020C4560020C8560020CC56002060
:20656000D0560020BC560020C056002038B58A4B1C682389B3F5FF6F40F29580874B1B89A8
:2065800007EE903A864B93ED000AF8EEE77A67EE807A844B93ED000A37EE800AFEF706FF49
:2065A000814B83ED000A228A40F24E739A4240F298807A4B1B8A07EE903A7C4B93ED000A56
:2065C000F8EEE77A67EE807A794B93ED000A37EE800AFEF7EBFE744B83ED020A628840F2F3
:2065E0004E739A4240F29B806C4B5B8807EE903A704B93ED000AF8EEE77A67EE807A6E4BC4
:2066000093ED000A37EE800AFEF7D0FE664B83ED010AE389F02B40F2A080604BDB8907EE75
:20662000903A664B93ED000AF8EEE77A67EE807A634B93ED000A37EE800AFEF7B7FE5A4B89
:2066400083ED030A554DB5F9003000EE103A0120B8EEC00AFFF708FFFFF796FE524C2082AD
:20666000B5F9043000EE103A0320B8EEC00AFFF7FBFE6082B5F90C3000EE103A0420B8EEB0
:20668000C00AFFF7F1FEE082B5F9063000EE103A0220B8EEC00AFFF7E7FEA082FFF7DCF874
:2066A000FFF7FAF938BD3D4B1B8907EE903A454B93ED000AF8EEE77A67EE807A424B93ED54
:2066C000000A37EE800AFEF771FE374B83ED000AB5EEC00AF1EE10FA7FF565AF00221A6027
:2066E00061E72E4B1B8A07EE903A384B93ED000AF8EEE77A67EE807A354B93ED000A37EEA3
:20670000800AFEF753FE284B83ED020AB5EEC00AF1EE10FA7FF562AF00229A605EE71F4B14
:206720005B8807EE903A2B4B93ED000AF8EEE77A67EE807A284B93ED000A37EE800AFEF780
:2067400035FE194B83ED010AB5EEC00AF1EE10FA7FF55FAF00225A605BE7104BDB8907EE7D
:20676000903A1E4B93ED000AF8EEE77A67EE807A1B4B93ED000A37EE800AFEF717FE0A4BC8
:2067800083ED030AB5EEC00AF1EE10FA7FF55AAF0022DA6056E700BFF85B0020305E002030
:2067A000E4560020EC560020FC5B0020F4560020FC560020D4560020DC560020A456002014
:2067C000AC560020E8560020F0560020F856002000570020D8560020E0560020A85600202C
:2067E000B05600200000000038B52DED028BCC4B1B681B89B3F5FF6F40F2EB80C94807EEE8
:20680000903AB8EE670A00F12C0200F1280103F0B5FEC54BD3ED007A20EE270AC34BD3ED61
:20682000007A30EE270AC24B83ED000ABC4B1B685B8840F24E72934240F2E480BD4807EE44
:20684000903AB8EE670A00F12C0200F1280103F095FEB94BD3ED007A20EE270AB74BD3ED59
:20686000007A30EE270AB24B83ED010AAC4B1B681B8A40F24E72934240F2DD80B04807EE75
:20688000903AB8EE670A00F12C0200F1280103F075FEAC4BD3ED007A20EE270AAA4BD3ED53
:2068A000007A30EE270AA24B83ED020A9C4B1B68DB89F02B40F2D880A44807EE903AB8EEE2
:2068C000670A00F12C0200F1280103F057FEA04BD3ED007A20EE270A9E4BD3ED007A30EE21
:2068E000270A934B83ED030A8D4B1B689B8AB3F5166F00F2D280B3F5B97F40F2EC809648BF
:2069000007EE903AB8EE670A00F12C0200F1280103F034FE914B93ED008A60EE087A17EE88
