:020000040800F2
:20000000000004204D240008D5CA0008D7CA0008D9CA0008DBCA0008DDCA000800000000EC
:20002000000000000000000000000000B1CD0008DFCA00080000000051CE0008B5CE0008D7
:200040009D2400089D2400089D2400089D2400089D2400089D240008E1CA0008EBCA00087A
:200060009D2400089D2400089D2400089D2400089D2400089D2400089D2400089D24000838
:200080009D2400089D2400089D2400089D2400089D2400089D2400089D2400089D24000818
:2000A0009D2400089D2400089D2400089D24000801CB00089D24000811CB00089D240008D2
:2000C0009D240008C1CB0008D1CB00089D2400089D24000871CB00089D2400089D240008B7
:2000E000F5CA0008E1CB00089D2400089D24000831CB00089D2400089D2400089D24000894
:200100009D2400089D24000821CB00089D2400089D2400089D2400089D2400089D2400086C
:20012000B1CB000861CB000881CB000851CB000841CB00080000000000000000000000007B
:200140000000000000000000000000009D240008A1CB00089D24000891CB00089D2400086C
:200160009D2400089D2400089D2400089D2400089D2400089D2400080000000000000000C9
:200180009D2400089D2400089D2400089D2400089D2400089D240008000000009D240008E0
:2001A0000000000000000000000000009D2400089D2400089D2400080000000000000000E4
:2001C000000000000000000000000000000000000000000000000000000000009D24000856
:2001E000FFFFFFFFFFFFFFFFFFFFFFFFFFFFFFFFFFFFFFFFFFFFFFFFFFFFFFFFFFFFFFFF1F
:2002000010B5054C237833B9044B13B10448AFF300800123237010BD5C0B002000000000B5
:20022000ACDC010808B5034B1BB103490348AFF3008008BD00000000600B0020ACDC0108BC
:20024000844641EA000313F003036DD1403A41D351F8043B40F8043B51F8043B40F8043BD3
:2002600051F8043B40F8043B51F8043B40F8043B51F8043B40F8043B51F8043B40F8043B82
:2002800051F8043B40F8043B51F8043B40F8043B51F8043B40F8043B51F8043B40F8043B62
:2002A00051F8043B40F8043B51F8043B40F8043B51F8043B40F8043B51F8043B40F8043B42
:2002C00051F8043B40F8043B51F8043B40F8043B403ABDD2303211D351F8043B40F8043BD2
:2002E00051F8043B40F8043B51F8043B40F8043B51F8043B40F8043B103AEDD20C3205D3E2
:2003000051F8043B40F8043B043AF9D2043208D0D2071CBF11F8013B00F8013B01D30B8833
:2003200003806046704700BF082A13D38B078DD010F003038AD0C3F10403D21ADB071CBF53
:2003400011F8013B00F8013B80D331F8023B20F8023B7BE7043AD9D3013A11F8013B00F852
:20036000013BF9D20B7803704B7843708B78837060467047000000000000000000000000B7
:20038000A2EB0300704700BF02780B78012A28BF9A42F5D16DE9044540EA0104CDE90267B9
:2003A0006FF0000C4FEA447212B380EA010414F0070F6AD100F0070420F0070004F003054C
:2003C00021F007014FEAC505F0E8042314F0040FF1E804670CFA05F462EA040266EA0406FC
:2003E0000AD063EA0403624667EA0407664603E0F0E80423F1E8046782FA4CF582EA0604C6
:20040000A4FA8CF46CBB83FA4CF583EA0705A5FA8CF595B950E9022351E9026782FA4CF534
:2004200082EA0604A4FA8CF483FA4CF583EA0705A5FA8CF52543DBD09CB92DBAB5FA85F45A
:2004400024F0070427FA04F1DDE9026723FA04F303F0FF0001F0FF01FDE80445A0EB010087
:20046000704724BAB4FA84F424F0070426FA04F1DDE9026722FA04F202F0FF0001F0FF016A
:20048000FDE80445A0EB0100704714F0030F3CD110F0030428D150F8082B51F8083B82FA45
:2004A0004CF582EA0305A5FA8CF55DB950F8042C51F8043C82FA4CF582EA0305A5FA8CF5FF
:2004C000002DE8D02DBAB5FA85F424F0070423FA04F122FA04F202F0FF0001F0FF01FDE81E
:2004E0000445A0EB010070474FEAC40420F0030050F8082B21F0030151F8083B0CFA04F442
:2005000062EA040263EA0403C9E710F003041AD0A1EB040120F00300E40750F8042B06D0B8
:200520000FD28B785FFAA2F4E41A06D12BB1CB785FFAB2F4E41A00D11BB920465DF8104B3C
:20054000704701F1040150F8042BCC0721F0030151F8043B48D824D222F07F4482FA4CF55E
:2005600094EA1325A5FA8CF50AD165B951F8043B84EA0204B4EB036F0ED150F8042BEBE777
:200580004FEA132355E035F07F454DD10878FDE80445C0F1000070474FEA126203F0FF03F8
:2005A00047E002EA1C4482FA4CF594EA1345A5FA8CF50AD165B951F8043B84EA0204B4EB81
:2005C000034F0CD150F8042BEBE74FEA134330E015EA1C4528D10B884FEA124229E04FEA49
:2005E000124203EA1C4324E002F0FF0482FA4CF594EA1365A5FA8CF50AD165B951F8043B0E
:2006000084EA0204B4EB032F09D150F8042BEBE74FEA13630DE015F0FF0F05D10B684FEA41
:20062000122223F07F4304E04FF00000FDE80445704712BA1BBA82FA4CF482EA0304A4FA3B
:200640008CF5B5FA85F402FA04F203FA04F34FEA1260FDE80445A0EB13607047000000007D
:2006600000000000000000000000000000000000000000000000000000000000000000007A
:2006800090F800F06DE9024520F007016FF0000C10F0070491F820F040F049804FF00004E2
:2006A0006FF00700D1E9002391F840F000F1080082FA4CF2A4FA8CF283FA4CF3A2FA8CF398
:2006C0004BBBD1E9022382FA4CF200F10800A4FA8CF283FA4CF3A2FA8CF3E3B9D1E9042312
:2006E00082FA4CF200F10800A4FA8CF283FA4CF3A2FA8CF37BB9D1E9062301F1200182FAAE
:200700004CF200F10800A4FA8CF283FA4CF3A2FA8CF3002BC6D0002A04BF04301A4612BAA1
:20072000B2FA82F2FDE8024500EBD2007047D1E9002304F00305C4F100004FEAC50514F064
:20074000040F91F840F00CFA05F562EA05021CBF63EA050362464FF00004A9E700000000CF
:2007600001F0FF01102A2BDB10F0070F08D010F8013B013A8B422DD010F0070F42B3F6D13F
:20078000F0B441EA012141EA014122F007047FF000070023F0E80256083C85EA010586EAEC
:2007A000010685FA47F5A3FA87F586FA47F6A5FA87F68EB9EED1F0BC01F0FF0102F00702E7
:2007C00032B110F8013B013A83EA010313B1F8D10020704701387047002D06BF354603384A
:2007E000073815F0010F07D1013015F4807F02BF013015F4C03F0130F0BC0138704700BF0E
:2008000081F0004102E000BF83F0004330B54FEA41044FEA430594EA050F08BF90EA020F07
:200820001FBF54EA000C55EA020C7FEA645C7FEA655C00F0E2804FEA5454D4EB5555B8BFDD
:200840006D420CDD2C4480EA020281EA030382EA000083EA010180EA020281EA0303362D94
:2008600088BF30BD11F0004F4FEA01314FF4801C4CEA113102D0404261EB410113F0004FFE
:200880004FEA03334CEA133302D0524263EB430394EA050F00F0A780A4F10104D5F1200E3C
:2008A0000DDB02FA0EFC22FA05F2801841F1000103FA0EF2801843FA05F359410EE0A5F184
:2008C00020050EF1200E012A03FA0EFC28BF4CF0020C43FA05F3C01851EBE37101F0004590
:2008E00007D54FF0000EDCF1000C7EEB00006EEB0101B1F5801F1BD3B1F5001F0CD349080A
:200900005FEA30004FEA3C0C04F101044FEA445212F5800F80F09A80BCF1004F08BF5FEAE8
:20092000500C50F1000041EB045141EA050130BD5FEA4C0C404141EB0101013C28BFB1F561
:20094000801FE9D291F0000F04BF01460020B1FA81F308BF2033A3F10B03B3F120020CDAFC
:200960000C3208DD02F1140CC2F10C0201FA0CF021FA02F10CE002F11402D8BFC2F1200C10
:2009800001FA02F120FA0CFCDCBF41EA0C019040E41AA2BF01EB0451294330BD6FEA04044A
:2009A0001F3C1CDA0C340EDC04F11404C4F1200220FA04F001FA02F340EA030021FA04F39B
:2009C00045EA030130BDC4F10C04C4F1200220FA02F001FA04F340EA0300294630BD21FAB9
:2009E00004F0294630BD94F0000F83F4801306BF81F480110134013D4EE77FEA645C18BF97
:200A00007FEA655C29D094EA050F08BF90EA020F05D054EA000C04BF1946104630BD91EAD0
:200A2000030F1EBF0021002030BD5FEA545C05D14000494128BF41F0004130BD14F580042D
:200A40003CBF01F5801130BD01F0004545F0FE4141F470014FF0000030BD7FEA645C1ABFA9
:200A6000194610467FEA655C1CBF0B46024650EA013406BF52EA033591EA030F41F4002198
:200A800030BD00BF90F0000F04BF0021704730B54FF4806404F132044FF000054FF00001C5
:200AA00050E700BF90F0000F04BF0021704730B54FF4806404F1320410F0004548BF404211
:200AC0004FF000013EE700BF42004FEAE2014FEA31014FEA02701FBF12F07F4393F07F4F8B
:200AE00081F06051704732F07F4208BF704793F07F4F04BF41F40021704730B54FF460749F
:200B000001F0004521F000411CE700BF50EA010208BF704730B54FF000050AE050EA010280
:200B200008BF704730B511F0004502D5404261EB41014FF4806404F132045FEA915C3FF46A
:200B4000D8AE4FF003025FEADC0C18BF03325FEADC0C18BF033202EBDC02C2F1200300FAB6
:200B600003FC20FA02F001FA03FE40EA0E0021FA02F11444BDE600BF70B54FF0FF0C4CF4BF
:200B8000E06C1CEA11541DBF1CEA135594EA0C0F95EA0C0F00F0DEF82C4481EA030621EA6C
:200BA0004C5123EA4C5350EA013518BF52EA033541F4801143F4801338D0A0FB02CE4FF0EF
:200BC0000005E1FB02E506F00042E0FB03E54FF00006E1FB03569CF0000F18BF4EF0010E19
:200BE000A4F1FF04B6F5007F64F5407404D25FEA4E0E6D4146EB060642EAC62141EA5551DC
:200C00004FEAC52040EA5E504FEACE2EB4F1FD0C88BFBCF5E06F1ED8BEF1004F08BF5FEAB0
:200C2000500E50F1000041EB045170BD06F0004646EA010140EA020081EA0301B4EB5C045F
:200C4000C2BFD4EB0C0541EA045170BD41F480114FF0000E013C00F3AB8014F1360FDEBF41
:200C6000002001F0004170BDC4F10004203C35DA0C341BDC04F11404C4F1200500FA05F3C1
:200C800020FA04F001FA05F240EA020001F0004221F0004110EBD37021FA04F642EB06011C
:200CA0005EEA430E08BF20EAD37070BDC4F10C04C4F1200500FA04F320FA05F001FA04F2CA
:200CC00040EA020001F0004110EBD37041F100015EEA430E08BF20EAD37070BDC4F1200591
:200CE00000FA05F24EEA020E20FA04F301FA05F243EA020321FA04F001F0004121FA04F234
:200D000020EA020000EBD3705EEA430E08BF20EAD37070BD94F0000F0FD101F000464000D5
:200D200041EB010111F4801F08BF013CF7D041EA060195F0000F18BF704703F00046520037
:200D400043EB030313F4801F08BF013DF7D043EA0603704794EA0C0F0CEA135518BF95EAB3
:200D60000C0F0CD050EA410618BF52EA4306D1D181EA030101F000414FF0000070BD50EAB6
:200D8000410606BF1046194652EA430619D094EA0C0F02D150EA013613D195EA0C0F05D1F3
:200DA00052EA03361CBF104619460AD181EA030101F0004141F0FE4141F470014FF000005D
:200DC00070BD41F0FE4141F4780170BD70B54FF0FF0C4CF4E06C1CEA11541DBF1CEA1355EB
:200DE00094EA0C0F95EA0C0F00F0A7F8A4EB050481EA030E52EA03354FEA013100F0888046
:200E00004FEA03334FF0805545EA131343EA12634FEA022245EA111545EA10654FEA0026A3
:200E20000EF000419D4208BF964244F1FD0404F5407402D25B084FEA3202B61A65EB030546
:200E40005B084FEA32024FF480104FF4002CB6EB020E75EB030E22BFB61A754640EA0C00BC
:200E60005B084FEA3202B6EB020E75EB030E22BFB61A754640EA5C005B084FEA3202B6EB1D
:200E8000020E75EB030E22BFB61A754640EA9C005B084FEA3202B6EB020E75EB030E22BFCC
:200EA000B61A754640EADC0055EA060E18D04FEA051545EA16754FEA06164FEAC30343EAD8
:200EC00052734FEAC2025FEA1C1CC0D111F4801F0BD141EA00014FF000004FF0004CB6E72B
:200EE00011F4801F04BF01430020B4F1FD0C88BFBCF5E06F3FF6AFAEB5EB030C04BFB6EB8D
:200F0000020C5FEA500C50F1000041EB045170BD0EF0004E4EEA113114EB5C04C2BFD4EBCA
:200F20000C0541EA045170BD41F480114FF0000E013C90E645EA060E8DE60CEA135594EA9B
:200F40000C0F08BF95EA0C0F3FF43BAF94EA0C0F0AD150EA01347FF434AF95EA0C0F7FF4B2
:200F600025AF104619462CE795EA0C0F06D152EA03353FF4FDAE1046194622E750EA4106D3
:200F800018BF52EA43067FF4C5AE50EA41047FF40DAF52EA43057FF4EBAE12E74FF0FF3C5E
:200FA00006E000BF4FF0010C02E000BF4FF0010C4DF804CD4FEA410C7FEA6C5C4FEA430CFE
:200FC00018BF7FEA6C5C1BD001B050EA410C0CBF52EA430C91EA030F02BF90EA020F002097
:200FE000704710F1000F91EA030F58BF994208BF90422CBFD8176FEAE37040F001007047A4
:201000004FEA410C7FEA6C5C02D150EA013C07D14FEA430C7FEA6C5CD6D152EA033CD3D079
:201020005DF8040B704700BF8446104662468C461946634600E000BF01B5FFF7B7FF00280B
:2010400048BF10F1000F01BD4DF808EDFFF7F4FF0CBF012000205DF808FB00BF4DF808ED3B
:20106000FFF7EAFF34BF012000205DF808FB00BF4DF808EDFFF7E0FF94BF012000205DF84E
:2010800008FB00BF4DF808EDFFF7CEFF94BF012000205DF808FB00BF4DF808EDFFF7C4FFF3
:2010A00034BF012000205DF808FB00BF4FEA410212F5001215D211D56FF47873B3EB6252E3
:2010C00012D94FEAC12343F0004343EA505311F0004F23FA02F018BF404270474FF0000014
:2010E000704750EA013005D111F0004008BF6FF0004070474FF00000704700BF4A0011D2B8
:2011000012F5001211D20DD56FF47873B3EB62520ED44FEAC12343F0004343EA505323FAEF
:2011200002F070474FF00000704750EA013002D14FF0FF3070474FF0000070474FEA41023B
:20114000B2F1E04324BFB3F5001CDCF1FE5C0DD901F0004C4FEAC0024CEA5070B2F1004FF5
:2011600040EB830008BF20F00100704711F0804F21D113F13872BCBF01F00040704741F42A
:2011800080114FEA5252C2F11802C2F1200C10FA0CF320FA02F018BF40F001004FEAC123FB
:2011A0004FEAD32303FA0CFC40EA0C0023FA02F34FEA4303CCE77FEA625307D150EA01331D
:2011C0001EBF4FF0FE4040F44000704701F0004040F0FE4040F40000704700BF53B94AB932
:2011E000002908BF00281CBF4FF0FF314FF0FF3001F014B9ADF1080C6DE904CE00F03CF863
:20120000DDF804E0DDE9022304B0704738B50022002304460D46FFF721FF28B92046294624
:20122000BDE8384000F00AB8204605F1004100F005F8404261EB410138BD00BFD0B50C4BB5
:20124000002206460F46FFF797FCFFF757FF0446FFF718FC074B0022FFF78EFC02460B4615
:2012600030463946FFF7D0FAFFF748FF2146D0BD0000F03D0000F0412DE9F047089D0446EE
:201280008E46002B4DD18A42944669D9B2FA82F252B101FA02F3C2F1200120FA01F10CFA50
:2012A00002FC41EA030E94404FEA1C48210CBEFBF8F61FFA8CF708FB16E341EA034306FBA5
:2012C00007F199420AD91CEB030306F1FF3080F01F81994240F21C81023E63445B1AA4B2B9
:2012E000B3FBF8F008FB103344EA034400FB07F7A7420AD91CEB040400F1FF3380F00A81AB
:20130000A74240F207816444023840EA0640E41B00261DB1D4400023C5E900433146BDE8A1
:20132000F0878B4209D9002D00F0EF800026C5E9000130463146BDE8F087B3FA83F6002EC9
:201340004AD18B4202D3824200F2F980841A61EB030301209E46002DE0D0C5E9004EDDE70F
:2013600002B9FFDEB2FA82F2002A40F09280A1EB0C014FEA1C471FFA8CFE0126200CB1FB72
:20138000F7F307FB131140EA01410EFB03F0884208D91CEB010103F1FF3802D2884200F266
:2013A000CB804346091AA4B2B1FBF7F007FB101144EA01440EFB00FEA64508D91CEB0404D5
:2013C00000F1FF3102D2A64500F2BB800846A4EB0E0440EA03409CE7C6F12007B34022FA34
:2013E00007FC4CEA030C20FA07F401FA06F31C43F9404FEA1C4900FA06F3B1FBF9F8200CAA
:201400001FFA8CFE09FB181140EA014108FB0EF0884202FA06F20BD91CEB010108F1FF3AB2
:2014200080F08880884240F28580A8F102086144091AA4B2B1FBF9F009FB101144EA014148
:2014400000FB0EFE8E4508D91CEB010100F1FF346CD28E456AD90238614440EA0840A0FB64
:201460000294A1EB0E01A142C846A64656D353D05DB1B3EB080261EB0E0101FA07F722FAEC
:2014800006F3F1401F43C5E9007100263146BDE8F087C2F12003D8400CFA02FC21FA03F3E5
:2014A000914001434FEA1C471FFA8CFEB3FBF7F007FB10360B0C43EA064300FB0EF69E428F
:2014C00004FA02F408D91CEB030300F1FF382FD29E422DD9023863449B1B89B2B3FBF7F6AE
:2014E00007FB163341EA034106FB0EF38B4208D91CEB010106F1FF3816D28B4214D9023E69
:201500006144C91A46EA004638E72E46284605E70646E3E61846F8E64B45A9D2B9EB0208D6
:2015200064EB0C0E0138A3E74646EAE7204694E74046D1E7D0467BE7023B614432E730461A
:2015400009E76444023842E703685A004CBF43F0004323F000431844704700BF2DE9F843D1
:2015600029B34F1E044615463E464FF0000808EB060101EBD171491004EBC1094846FFF7F4
:20158000E3FF0346C80008308F42204409D0AB4209D8FFF7D9FF0138A8420AD201F101087C
:2015A000E5E7AB4205D9884501D04E1EDFE74FF000094846BDE8F883012807D0022807D0CD
:2015C000044B00280CBF1846002070470248704702487047911C0008951C0008991C000867
:2015E00030B5234B83B004468D1E3BB301A92846AFF30080E8B101992A46FFF7AFFF0146BA
:20160000B8B1FFF7A1FF4B68A064012B2CD0002B01F1040024DBFFF797FF0023C4E913035A
:201620000368002B11DBFFF78FFF2061002003B030BD00230920236103B030BD0D4B0E4944
:20164000C91AC91018460191D6E7C3F30360FFF7B3FF0028206114BF0020092003B030BDFB
:201660000123C4E91303DBE7002323610520DEE700000000283E0208084002080368DA0722
:2016800010B5044606D49B0700F1480009D500F05BFC2368590709D51A070ED5DB0613D5CB
:2016A00010BD00F049FC23685907F5D404F1D00000F052FC23681A07F0D404F5A87000F000
:2016C00053FC2368DB06EBD404F5E870BDE8104000F08EBC092070470346006800B1184472
:2016E000704700BF704700BF70B504460E46316C2046FFF775FF054688B9326C6261236955
:2017000032462146012098470828F0D0072806D12846316CFFF7E6FF301D00F001FC1BF0C9
:2017200025F900BF2DE9F0470D1DD0F80C80D0F81890074614460FCDADF5727D0DF10C0C67
:20174000ACE80F000FCDACE80F000FCDACE80F0095E80F0002AE4FF0000E8CE80F00C6F81E
:2017600000E020E0336C7B614FF4F07231467AA8FEF766FD3B697AAA394650469847889B99
:2017800073642146CDE9006905463B463A460120C0470446E0B94FF4F0727AA93046FEF762
:2017A0004FFD082D1AD1316C3846FFF719FF09345FFA84FA05460028D4D0B36B73643A46F4
:2017C000CDE900693B464AF010010120C04700B1092528460DF5727DBDE8F087072DF7D1A0
:2017E0002046316CFFF77EFF03A800F099FB00BF406C7047F0B5CB6B0B6401F1040C0E4682
:201800000546BCE80F00F9B001AC0FC4BCE80F000FC4BCE80F000FC49CE80F004FF0FF378D
:2018200084E80F00009706E02B696A46294698470828044608D110992846FFF7D1FE0028C7
:20184000F2D0092079B0F0BD6846FFF717FF062CF7D131462846FFF747FF00BFC160D96BCE
:2018600082611964002219465CE700BF70B5C66843690B64AEB903690A4604460D46014610
:2018800002209847072805D008280FD129462046FFF72AFF3046296CFFF724FF281D00F0E6
:2018A0003FFB0122FFF73EFF1BF060F81BF05EF8C2681AB1CA6B0A64002233E79AE700BFC0
:2018C000704700BF836801460BB1012018477047012912D009D873B90F2A0CD800EB8202C8
:2018E00018465368009A136070470339012994BF012002207047022070470846704700BFBB
:2019000000B585B00A46002303A900911946FFF7DFFF039805B05DF804FB00BF012912D08B
:2019200009D873B90F2A0CD800EB8200009A12684260184670470339012994BF0120022049
:201940007047022070470846704700BF10B584B0002303AC039200940A461946FFF7DEFFBD
:2019600004B010BD70B5D36B136402F1040C05460C46BCE80F00ADF50E7D0DF15C0EAEE88E
:201980000F00BCE80F00AEE80F00BCE80F00AEE80F009CE80F004FF0FF368EE80F00169650
:2019A00010E0FFF7D3FF214616A8A847034616AA6946082083B9049B9847052806460CD06C
:2019C000092809D026996846FFF70AFE03466A460C2116A8002BE4D0092616A8FFF74EFEA0
:2019E00030460DF50E7D70BD2DE9F04FCC6C89B01E4654F8043B06940D46174600F00308BD
:201A0000002E79D01A0C1B0405938DF81D200223D2B204EB82048DF81C302B6DB8F1020F6F
:201A200008BFAC6B13F001030CD005A9384600F079FB18B9082009B0BDE8F08F092009B09D
:201A4000BDE8F08FD4F800A0BAF1000FEDD0019300F008030293022E4AD0B4F800A0B4F819
:201A600002900434AB6C29F0010B0F2138469B44FFF746FF834539D82AF001039B448345FA
:201A800094BF002001204FEA490303F002030AF0010A43EA0A03012B49D0022B32D0002B57
:201AA000CCD1B8F1000F02D0002840F0CD800434D4F800A0BAF1000FCDD105A9384600F042
:201AC00031FB0028BAD1019B002BB3D00F213846FFF716FF0E2102463846FFF737FF384685
:201AE0006A4A0F21FFF732FF0720A8E70020CAE7D4F804900834B5E71B0205930323ADF89C
:201B00001C308AE7236823F0004BB8F1000F45D128B1029A002A5CD0BBF1000F74D0002B5C
:201B200000DA04340BF1010B04EB8B04C0E7B8F1000F19D1B0B163682268991C4FEAD272DC
:201B40003FF47CAF05F158010133049100F09080201DFFF7C1FD04AB01462846AFF3008098
:201B600000285BD10834A3E70D213846D5F82090FFF7C6FE8145F5D1AB6A9C42F2D12046C0
:201B8000FFF7E2FC0F2102463846FFF7DFFE38462A460021FFF7DAFE072050E70D213846C1
:201BA000D5F82090FFF7ACFE814501D02368B6E7AB6A9C42FAD104230022C5E90B23E3186B
:201BC000C5F828B06B632368002B59DB01230193A8E705F15803CDF80C8004F1040AB046D6
:201BE00091461E460EE050460496FFF775FD0022014604AB284609F101090AF1040AAFF3EF
:201C00000080E0B9D945EED10D213846FFF778FE049BAC62C5E90803062010E781460D213E
:201C20003846FFF76DFEB9F1020F286225D12B46049A43F82C2F6B62AC620620FFE6464673
:201C40002368DDF80C806AE72046FFF77DFC04340246AC6328461446AFF3008000283FF49E
:201C6000EDAE384622460F21FFF770FE0720E6E60D213846FFF744FE2862049B6B62DBE7C0
:201C80000BF1010004EB80007AE700BF000000000023A9E60123A7E60223A5E62DE9F0435C
:201CA0000646C3B015461C46042900F2BF80DFE801F09E57BD2D0300002C40F0B780102AE3
:201CC00000F2B4800368D80600F1F98020AF384600F098F9B46B394600234FF0010C0CFA4A
:201CE00003F22A42204603F1010303D050F8042B0A600446042B01F10401F0D13846B463AB
:201D000000F076F9002043B0BDE8F083032C40F08D8094B204EB1243102B4FEA124500F286
:201D2000858003681F0700F1D28020AF384600F03DF9B26B07EBC50154B10B46D01A01EB56
:201D4000C401E4001D5843F8045B8B42FAD122443846B26300F008F9002043B0BDE8F0831E
:201D6000012C4FEA124895B25CD0052C5ED108EB0509B9F1200F59D8B8F10F0F79D9A946BD
:201D8000002D40F08A80B36B6DB320AF4FF0000907EBC807043F03EBC50553F8041B47F822
:201DA000041FAB42F9D1B9F1000F0FD06F464146102938BF102107EBC101843903EBC905E7
:201DC00053F8040B41F8040FAB42F9D1012C00F08680B8F10F0FB56347D9B9F1000F02D0F9
:201DE000684600F0B9F8002043B0BDE8F083ECB9806B23461FFA82FC0124371D04FA03F26D
:201E000012EA0C0F014604D051F8042B47F8232008460133102BF1D115F40055E3D1B063F2
:201E2000284604E008EB0503102B03D9022043B0BDE8F083B8F10F0FF8D83368DA0706D523
:201E4000304623F0030340F8483B00F079F820AF384600F075F8B36B002D97D11D460435DE
:201E6000B563384600F068F8BDE720A800F06CF8B3E7B9F1100F40D9A9F110093368D90712
:201E800008D523F00103304643F0020340F8483B00F05EF8B9F1000F32D033685A0720D4F4
:201EA000B8F10F0F25D96F463846C8F1100500F057F8002DB36B7FF77AAF20AF68E723F002
:201EC0001003336006F5E87000F09CF8FEE623F00803036000F5A87000F068F825E720AFE8
:201EE000BDE7304623F0040340F8D03B00F038F8D6E720A800F02CF8D5E74FF00009BDE70A
:201F0000B8F10F0F3FF63FAF20AF384600F020F8B36B002D7FF43AAF384600F015F862E717
:201F200000F1340191E838009C46A6464CF8045D90E8FF0FE54600BD90EC210B704700BFCB
:201F400080EC210B704700BF90EC200B704700BF80EC200B704700BFD0EC200B704700BFEC
:201F6000C0EC200B704700BFF0EC0201F0EC0211F0EC0221F0EC0231F0EC0241F0EC0251EA
:201F8000F0EC0261F0EC0271F0EC0281F0EC0291F0EC02A1F0EC02B1F0EC02C1F0EC02D189
:201FA000F0EC02E1F0EC02F1704700BFE0EC0201E0EC0211E0EC0221E0EC0231E0EC024172
:201FC000E0EC0251E0EC0261E0EC0271E0EC0281E0EC0291E0EC02A1E0EC02B1E0EC02C149
:201FE000E0EC02D1E0EC02E1E0EC02F1704700BFB0FC0181B0FC0191B0FC01A1B0FC01B146
:020000040800F2
:20200000704700BFA0FC0181A0FC0191A0FC01A1A0FC01B1704700BFEC4600B52DE90050AF
:202020002DE9FF1F4FF000032DE90C0001A9FFF7E1FBDDF840E012B0704700BFEC4600B578
:202040002DE900502DE9FF1F4FF000032DE90C0001A9FFF70BFCDDF840E012B0704700BFAE
:20206000EC4600B52DE900502DE9FF1F4FF000032DE90C0001A9FFF71BFCDDF840E012B00D
:20208000704700BFEC4600B52DE900502DE9FF1F4FF000032DE90C0001ABFFF7DFFBDDF894
:2020A00040E012B0704700BFEC4600B52DE900502DE9FF1F4FF000032DE90C0001AAFFF742
:2020C00051FCDDF840E012B0704700BF027A03467AB9427AA2B14168013A10B442720868B3
:2020E00003220C1D1A7202025C60000E10BC1A6070470068013A1A7202021A60000E7047C9
:20210000B020704700B585B0002303AA009219460C22FFF7DDFB039805B05DF804FB00BF2E
:20212000F0E700BF2DE9F043054685B00E464FF000083046FFF7CAFFB028044600F0BA8024
:20214000070620D500F0F003802B4DD0902B36D0A02B60D0B02B74D0C02B00F08B8000F021
:20216000F803D02B0BD100F007020132052342F4002201212846FFF791FD0028D9D00920D3
:2021800005B0BDE8F0838300DBB21F1D0DF10C0900231946CDF800900D222846FFF798FB16
:2021A000039BCDF8009060064CBFDF1BFF1800230D22194628460397FFF7B0FBB9E700F0C0
:2021C0000D030D2BDBD003AF002300F00F02194600972846FFF77CFB002300970D2219461D
:2021E0002846FFF79BFBA4E73046FFF76FFF24022043B0F5004FC2D004010023A2B2194696
:202200002846FFF74BFD0028B9D114F4004F18BF4FF001088DE7C24302F007034FF47F6251
:202220001A41010702F47F624FF0000348BF42F4804219462846FFF731FD00283FF479AFAF
:202240009DE7B1283BD0B22800F09380B32841D000F0FC03B42B92D000F0070201320123CD
:2022600042F4002219462846FFF718FD00283FF460AF84E7C6284AD0C72854D000F0F80353
:20228000C02B63D0C82868D0C9287FF478AF3046FFF71CFF020300F00F0002F47022013029
:2022A0000243012105232846FFF7F8FC00283FF440AF64E7B8F1000F18D0002060E7304625
:2022C000FFF704FF024600283FF459AF10F0F003C8D054E73046FFF7F9FE020300F00F032A
:2022E000013302F470221A430123BBE703AC43460E22414600942846FFF7EAFA0094434617
:202300000F2241462846FFF709FB404638E73046FFF7DCFE020300F00F03013302F47022EF
:202320001A4303239EE73046FFF7D0FE024600283FF425AF10F0F0037FF421AF042128461B
:20234000FFF7ACFC00283FF4F4AE18E700F00F020132032342F4202284E73046FFF7B6FE86
:2023600000F0F00200F00F031032013343EA023297E700230DF10C090D221946CDF800900B
:202380002846FFF7A5FA3046FFF7A0FE02064FF002040CD5039B00F07F00A0401844039026
:2023A0003046FFF793FE030604F10704F2D4039BCDF8009000F07F02A24003F501731A4441
:2023C0000023039219460D222846FFF7A7FAB0E610B5C26C536884B04FF0030C08321C0294
:2023E00008461B0E01A9019402928DF80CC08DF80D30FFF797FE04B010BD00BF08B5FFF702
:202400008FFE806C08BD00BF08B5FFF789FEC06CC379023300EB830008BD00BF704700BF80
:2024200000B583B000F09CFD00230193072200924FF480720349044810F0C5FD10F06AFEC2
:20244000FEE700BFD8DC010805370008DFF834D0002103E00C4B5B58435004310B480C4B7C
:2024600042189A42F6D30B4A02E0002342F8043B094B9A42F9D30AF019FC16F011FBFFF777
:20248000CFFF70470000042018400208000000205C0B00205C0B002064C60220FEE70000D2
:2024A00070B582B0044602F0D7FA58B113F01EFF70B92CB1002302221946204611F08EF9F5
:2024C000002533E0304A3149032009F0A9FAEDE72F4A2E49012009F0A3FA4D222D49002091
:2024E00009F00CFBE5E72C4C20682C4E3368C01A00B214F051F82368336023683233284AA2
:20250000136023E002F0A8FA10B10BF0E5F828E0244A1E49032009F083FAF6E71E4B1A68DA
:20252000214B1A602546012001F081F81F4B1A68194B1B689A4203D2174B1A681B4B1A6077
:20254000174B1A68144B1B689A42CCD3164B1A68114B1B689A42E6D200F0F2F90446042893
:20256000D0D0A542DAD002F077FA0028D6D1104B53F82420009253F825300E4A0349032015
:2025800009F04EFACAE700BFF8DD010814DE010820DE010844DE010840B600202800002021
:2025A0007C0B002088DE0108800B0020840B00200C000020B0DE010800B585B011F05EF8A7
:2025C00003460B4A02920B4A0192032200924FF400620949094810F0B5FC094B18604FF026
:2025E000FF31012011F0BEF805B05DF804FB00BF880B0020E00B0020CCDE0108A1240008CD
:20260000780B002008B503F0DDF908BD08B5FFF7F9FF02F0A7FD08BD6B20704770470000CD
:202620000D4B1B68B3B130B583B004460B4B1B6813B9012003B030BD094B1D7813F0B0FFF8
:2026400001900095052301220421204614F060F90020EFE701207047082C0020102C0020A3
:20266000F92B00200D4B1B68B3B130B583B004460B4B1B6813B9012003B030BD094B1D7826
:2026800013F08EFF01900095052302220421204614F03EF90020EFE701207047042C002054
:2026A000142C0020F82B00200E4B1B68C3B970B582B004460C4B1B6813B9012002B070BDD8
:2026C0000A4B1E8BDD6913F06BFF0190EDB20095052332460421204614F01AF90020EDE74E
:2026E00001207047082C0020102C00205C000020134B1B680BBBF0B585B00446114B1B682C
:2027000013B9012005B0F0BD0F4D35F8047B13F047FF0290042601960223009305233A4666
:202720003146204614F027F900233246294604F10C0014F0A2F90020E4E70120704700BF6C
:20274000082C0020102C00205C000020134B1B680BBBF0B585B00446114B1B6813B90120B6
:2027600005B0F0BD0F4E378A13F01AFF0290042501950223009305233A462946204614F033
:20278000FAF800232A4606F1140104F10C0014F074F90020E4E70120704700BF082C002060
:2027A000102C00205C000020134B1B680BBBF0B585B00446114B1B6813B9012005B0F0BD48
:2027C0000F4E378913F0ECFE0290042501950223009305233A462946204614F0CCF800237E
:2027E0002A4606F10C0104F10C0014F046F90020E4E70120704700BF082C0020102C0020EF
:202800005C00002010B582B0044613F0C9FE0090072301220321204614F050F8002002B0AC
:2028200010BD10B582B0044613F0BAFE0090062301221146204614F041F8002002B010BD5A
:2028400010B582B0044613F0ABFE0090022301221146204614F032F8002002B010BD10B564
:2028600082B0044613F09CFE0090062315220421204614F023F8002002B010BD08B5034BFB
:2028800001221A6015F074FA08BD00BF202C002010B586B0044614F09CF8A8B90C34002298
:2028A0000DF11701204614F0EDF801220DF11601204614F0E7F802220DF11501204614F090
:2028C000E1F8002006B010BD4FF427730393064B0293064B0193064B0093064B227B082143
:2028E000012013F067FCD9E7C41002080C11020830110208B0100208104B1A8841F288338C
:202900009A4201D90120704710B584B0044613F047FE02900223019300930523152204213C
:20292000204614F028F80022044B198804F10C0014F0B0F8002004B010BD00BF7C00002052
:2029400008B5554B1B78052B6BD8DFE803F003455689929A0023514A1370514A1360514A1D
:202960001360514A1360514A1360514A136013F0FFFD10B9494B01221A70484B1B7853B187
:20298000464B1B78A3B1454B1B78002B49D0424B06221A7045E0FFF73FFE0146454A46485D
:2029A00011F078FD0028EBD03C4B06221A70E7E712F048FB012807D0002013F009FE28B16F
:2029C000364B03221A70DEE73C48F6E713F0DCFD314B01221A70D6E713F090FC012808D04F
:2029E00002281ED12C4B06221A702C4B03221A7017E0294B02221A7013E02A4B1B68BBB9F7
:202A0000274B1B68D3B9284B1B68EBB9274B1B6803BB2B4B1B6898472A4B1B689847FFF743
:202A2000F5FD294B1B68002B34D11C4B187808BD1C4B00221A6013F0A1FCE1E7184B0022D1
:202A40001A6013F0F3FCDEE7174B00221A6013F049FCDBE7154B00221A6013F02FFCD8E754
:202A600013F080FD0D4B05221A700B4B06221A70D7E713F077FD0023074A1370074A1370C5
:202A8000CFE713F06FFD054B04221A70024B06221A70C6E70620CAE7FA2B0020242C0020D9
:202AA000002C00200C2C0020182C0020FC2B0020202C002038F30108C4F30108C0D40100D2
:202AC0001CBB022018BB02201C2C0020014B01221A6070471C2C002010B582B0044613F054
:202AE00078FF48B900220DF1070104F10C0013F0C9FF002002B010BDFFF7E8FFF9E710B549
:202B000082B0044613F065FF48B900220DF1070104F10C0013F0B6FF002002B010BDFFF75B
:202B2000D5FFF9E710B5044613F053FF38B90022044904F10C0013F0AAFF002010BDFFF78D
:202B4000C5FFFAE7262C0020014B05221A707047FA2B002008B511F0D1FD08BD08B512F055
:202B600055FA08BD08B511F0E5FD08BD08B511F0B1FD08BD0138012800D9704708B5FFF706
:202B8000A5FF08BD08B54379F83B072B14D8DFE803F0040A071313130D1012F07BFF08BD9C
:202BA00013F0B4F8FBE712F0A9FDF8E711F054FEF5E712F0F9FBF2E7037A03F0BF03037258
:202BC00063F07F03037201230370002343700323037313F019FCE2E77047704710F0010F43
:202BE00002D00B4B01221A6010F0020F02D0094B01221A6010F0040F02D0074B01221A6068
:202C000010F0080F02D0054B01221A60704700BF0C2C0020002C0020182C0020FC2B002019
:202C200008B5094B18701B78DBB2042B02D0072B04D008BD054B1B689847FAE7002104480F
:202C400013F0DAF9F5E700BFFB2B00201CBB02207412020808B50146014813F0CDF908BD59
:202C60002413020810B515F093F8044615F08AF8C3B2324A1370252B14BF00220122012BE5
:202C800014BF114642F0010199B9052B11D0202B0FD0652B0DD0902B0BD09E2B09D0952BE4
:202CA00007D0872B05D09F2B03D025490020086002E0234901200860202B08BF42F0010205
:202CC0002AB9902B03D01F4A0021116002E01D4A01211160982B08D09A2B14D0932B20D0BA
:202CE000A32B18BF9B2B24D010BD40F201429442F2D1154A04211180052111810621118213
:202D000007211183EAE740F201429442E6D10E4A06211180072111810821118209211183E0
:202D2000DCE70A48FFF796FF09490A4813F064F9DAE70749074813F05FF9D5E7252C002007
:202D4000082C0020042C00205C0000201D2600087D280008A41202080020704700207047ED
:202D600030B585B0044613F01BFC029000250195032300932B462A460221204613F0FBFD6A
:202D80000A4B1B78A3720A4B1B78E3720C34094B1A780421204613F07DFE2A462946204685
:202DA00013F078FE284605B030BD00BF382C0020372C0020392C002030B585B0054613F0D7
:202DC000EFFB02900024019404230093234622460221284613F0CFFD074B1B78AB72074B7F
:202DE0001B78EB722246214605F10C0013F052FE204605B030BD00BF362C0020352C0020F5
:202E000010B51C46124B1970124B1870124B1A70124B1B7813B1012B07D010BD104800F00D
:202E2000E5FE0E4B01221A70F7E764230C4A0121002006F000FE0028EFD02146094813F016
:202E4000DBF8074800F0D2FE044B00221A70E4E7382C0020372C0020392C0020282C0020CA
:202E60002C2C0020CC13020810B5124B1870124B1970124B1B781BB11446012B07D010BD7B
:202E80000F4800F0B3FE0D4B01221A70F7E764230B4A0121002006F0CEFD0028EFD021462A
:202EA000084813F0A9F8064800F0A0FE034B00221A70E4E7362C0020352C0020342C0020FA
:202EC000302C0020EC13020870B584B005460A4619B101293FD004B070BD0B46042B0AD833
:202EE00004A901EB430111F80C1CA94202D00133DBB2F3E70122002AEDD1A5F10A0317485F
:202F000003EB430400EB84018B684A68497810F82400FFF775FF8DF8045001238DF8053059
:202F2000D9E70134E4B2042CD5D804AB03EB440313F80C3CAB42F4D10022114604AB03EB2A
:202F4000440616F80B0CFFF78FFF002306F80C3C06F80B3CE5E70024E5E700BF80000020B5
:202F600008B50AF06FF800F0E7FB00F04FFD08F0A1F807F0DDFC08F0E9F906F00FFE07F0F0
:202F80008BF907F003F901F003F800F01DFF00F09DFE00F063FD00F009FE00F07FFC06F08F
:202FA000BFFD08BD08B5022805D0B0F5805F08D0012803D008BD04F083FCFBE704F080FCF2
:202FC000F8E7024B1B689847F4E700BF14BB022030B5A1B00D46002400947C22214601A8E9
:202FE00015F0B4FD2B46064A8021684600F0F9FA3C220449204608F081FD21B030BD00BF24
:203000000C14020828140208034B0360034B0B6080231360704700BF3C2E00203C2C002038
:20302000030A43EA002080B2704701604160013A82600023C360036143618361C361704721
:2030400003207047704710B504460846236833B1A26893420CD3934212D0002010BD14217C
:20306000C0B2FFF7EFFFE3680133E3600120F5E75A1C22601970E3680133E3600120EDE703
:203080005A1C226000201870E8E70000F8B504460D460846FFF7D4FF00B9334D6069002836
:2030A00002DD2B4600221CE02026237F13F0010F2CD0E2692D4B13402D4A934232D0A3693B
:2030C000002B41D0297800293ED02046FFF7BBFF034628B30135A369013BA361EFE7013217
:2030E000013319780029FAD1904207DC00236361237F13F0020F04D12026D6E7821A62618E
:20310000F6E73026D1E76369013B63616369002BCFDD31462046FFF796FF03460028F2D1B9
:203120001846F8BD2846FDF7ABFAA7698742C6DD3F1A002FC3D030212046FFF784FF034665
:203140000028EDD0013FF4E76369002B0ADD31462046FFF778FF03460028E1D06369013B1D
:203160006361F1E70123DBE760140208FF0002000100020030B585B005460269807F40F04C
:203180000200A87759B10B46A87F10F0010F11D0C80F0A2A2BD150B34B4201200BE03023A5
:2031A0008DF8043000238DF8053001A92846FFF76DFF1AE0002000218DF80F100A2A34D0E8
:2031C000102A24D0082A33D00DF10F0448B16B691BB12B7F13F0020F2DD12D2304F8013C9D
:2031E000013C21462846FFF751FF05B030BD0020E1E7303204F8012D1B09002BE6D003F069
:203200000F02092AF5DD697F3A390A44F1E70DF10F04F2E7B3FBF2F102FB1133303304F8FC
:20322000013D0B46002BF5D1D0E70DF10F04F9E70DF10F04F6E72D212846FFF704FF00289B
:20324000D3D06B69013B6B61CBE72DE9F04106460D4600210C4688464FF0FF370B4603E06D
:203260008846274600210133072B13DC35F8130010B901B91C460131072B14BF00220122FC
:20328000002818BF42F00102002AECD08845E7DB0021E8E71023336161237377002416E046
:2032A00008F1FF331C443A213046FFF7CCFE072C0CD13A213046FFF7C6FE07E035F814002F
:2032C000FFF7AEFE01463046FFF754FF0134072C08DCBC42E4D0002CF0DD3A213046FFF788
:2032E000B2FEEBE70120BDE8F0810EB410B58BB001460DAB53F8044B099300F5806201A89E
:20330000FFF793FE099A214601A800F023F804980BB0BDE8104003B07047000010B586B0B7
:203320000446CBB20193C1F307230093C1F307430A0E074902A8FFF7D8FFA37F43F002038A
:20334000A37702A92046FFF7A1FE012006B010BD6814020870B584B005460C46019226468E
:2033600016F8014B252C23D1344614F8011B002900F0DC80252932D12846FFF764FE002858
:20338000EDD104B070BD14212046FFF75BFE3CB1EB680133EB60012402E0934218D00024FD
:2033A000002CEED0334613F8014B252C15D01E462B68002BE7D0AA689342EED25A1C2A609D
:2033C0001C70002CECD0EB680133EB600124E7E75A1C2A6000241C70E2E71E46C4E7002309
:2033E0002B616B61AB61EB612D2908D030290BD114F8011B2A7F42F002022A77F6E7B41C65
:20340000717801232B77F1E72A2951D114F8011B019B1A1D01921B686B612E294DD0AB694B
:203420000BB9013BAB61702964D0732972D0632900F081806C2900F08B804C2900F08F8054
:203440000A232B6161236B77642914BF00230123752914BF1A4643F00102002A40F086803F
:2034600010232B61782900F08F80582918BF782904D0A1F16F03012B3FF671AF582900F02A
:2034800096806F2900F09680019B1A1D019219682846FFF76FFE002848D060E76B6903EB77
:2034A00083035B006B6130390B446B6114F8011BA1F13003092BF1D9AFE7234613F8011BCA
:2034C0002A2911D1019B1A1D01921B68AB6161780234A4E7AA6902EB82025200AA613039DE
:2034E0000A44AA6113F8011BA1F13002092AF1D91C4694E72378692B97D16378702B94D13C
:203500000234019B1A1D019219682846FFF79DFE60B124E7019B1A1D0192196801B9274962
:203520002846FFF7B3FD00287FF419AF00212846FFF789FD25E7019B1A1D019219788DF881
:203540000C102846FFF77FFD00283FF41AAF06E714F8011BAB7F43F00403AB776DE714F850
:20356000011BAB7F43F00803AB7769E7AA7F63F30002AA77019B1A1D019219682846FFF768
:20358000F9FD0028D2D0EAE62378692B7FF46DAF6378702B7FF469AF0234019B1A1D019240
:2035A00019682846FFF7BAFE0028BFD0D7E641236B7769E708232B6166E700BF741402080F
:2035C00030B589B014461D46421801466846FFF72CFD2A4621466846FFF7BCFE039809B019
:2035E00030BD0CB410B58AB00CAB53F8044B09934218014601A8FFF718FD099A214601A82A
:20360000FFF7A8FE04980AB0BDE8104002B0704738B5054610F03AFA04462A46002115F00E
:2036200095FA204638BD08B510F0ACFA08BD08B50FF0C4FE08BD000000B585B010F01EF835
:2036400003460B4A02920B4A0192032200924FF40062094909480FF075FC094B18604FF0D6
:20366000FF31012010F07EF805B05DF804FB00BF9C2E0020F42E00207C1402088536000832
:20368000942E002010B5044606F014FA2CB1002302221946204610F0A1F806F02BFA002078
:2036A000FFF7C5FFF9E7000000B58BB028220021684615F04BFA68460AF090FB01F0CCF934
:2036C00048B9039BAA2B09D0CC2B0DD0094A0021032008F0A5F90BB05DF804FB064A0749ED
:2036E000032008F09DF9F6E7054A0021032008F097F9F0E7C814020884140208A414020800
:20370000A814020808B5002008F07EF90020FFF793FF08F081F9FFF7C7FF0020FEF74CFF61
:20372000044B01221A60002006F046FE00200FF07FFC08BD982E002010B5B4B03022002162
:2037400028A815F003FA0024239424942594269427948022214603A815F0F8F90BF08CFEA7
:20376000334B1A6F22F018021A671A6C42F080521A641B6C03F080530193019B2D4A13681E
:2037800023F4404343F480431360136803F440430293029B0623289301232A932B93102345
:2037A0002C9302232E932F9408223092902231923293339328A80BF0A5FE08BB0BF064FE27
:2037C00020BB0F23239302232493002325934FF4A05326932793042123A80CF0FFF8D8B952
:2037E0004CF26003039300231A931B9312934FF480730D9303A80CF0EBF998B934B010BD0C
:203800004D220D49204608F079F9D7E753220A49002008F073F9D4E760220749002008F064
:203820006DF9DDE76E220449002008F067F9E5E70038024000700040E814020808B50368E5
:203840000C4A934209D0B3F1804F05D00A4A934206D00A4A934208D008BD09F0FFFBFBE782
:20386000074A136801331360F6E7064A136801331360F1E70004014000080040000C0040D5
:20388000F84E0020F44E0020014B1868704700BFF44E002042F210707047000008B5002173
:2038A0000F4800F059FB00210E4800F055FB0121052000F03FFA0121042000F03BFA0021BA
:2038C000022000F037FA0121084600F033FA0121002000F02FFA0021032000F02BFA08BD9F
:2038E000F84F00201050002008B5802101480AF01FFC08BD00000240B5EEC00AF1EE10FAC8
:2039000025DBDFED137AB4EEE70AF1EE10FA1ED808B5B0EE677AC0EE077A9FED0E7A67EE08
:20392000877AFCEEE77A10B1012808D008BD17EE903A00221146084809F026FFF6E717EE1C
:20394000903A00221021044809F01EFFEEE770473333534000008045C87E002010B506F07D
:2039600091FF0020B6EE080AFFF7C6FF01209FED070AFFF7C1FF064C0021204609F0D0FE12
:203980001021204609F0CCFE10BD00BF3333F33FC87E002008B500220521062009F046FEDB
:2039A000062009F079FE01221146034807F04CFA024B01221A7008BD001C0240FD4E0020E7
:2039C00008B5054B1B78012B01D0002008BD012102480AF0ADFBF9E7FD4E0020001C0240AE
:2039E00008B500220521072009F020FE072009F053FE01220221034807F026FA024B0122FB
:203A00001A7008BD001C0240FC4E002008B5FFF7A5FFFFF7BFFFFFF7E3FF08BD08B5072003
:203A200009F048FE0221034807F07AFA024B00221A7008BD001C0240FC4E002008B5054BDB
:203A40001B78012B01D0002008BD022102480AF06FFBF9E7FC4E0020001C024008B5002398
:203A60000C4A13700C4A13700C4A13700C4A137006F08EFE03220B490B4809F0C7FB0422B3
:203A80000A490B4809F0C2FB04220A490A4809F0BDFB08BD324F0020184F0020194F0020D9
:203AA0001A4F0020004F0020F07D0020084F0020387E0020104F0020807E0020114B1A8899
:203AC000114802815A884281104A918801821188C181528842820E4AD1880180118881802A
:203AE000998841809188C18052888281DB8883820023084A1370084A1370084A1370084A51
:203B000013707047104F00201C4F0020004F0020084F0020184F0020194F00201A4F0020E3
:203B2000324F0020014B1878704700BF324F0020024B1888024B1881704700BF104F002029
:203B40001C4F00200368124A934212D0114A934215D0114A934216D0104B1B7843B1104BF4
:203B60001B782BB10F4B1B7813B10F4B01221A70704701230B4A13700B4A13707047074B8A
:203B800001221A70E8E7064B01221A70E4E700BF002201400020014000210140184F002074
:203BA000194F00201A4F0020324F002008B507F099FD07F0BDFD002202211E2009F036FDA9
:203BC0001E2009F069FD00220221322009F02EFD322009F061FD03480DF082F902480DF0DA
:203BE0007FF908BDB88300200484002010B50446FFF74AFE206010BD38B505460C46FFF76B
:203C000043FE401B044BA3FB0030B4EBD00F01D9002038BD0120FCE7CDCCCCCC38B5054611
:203C20000C46FFF731FE401B642303FB00F0A04201D2002038BD0120FCE7837903B1704708
:203C400010B504468188006807F06AF90022A188206807F095F80123A37110BD08B500224F
:203C6000818800680AF06BFA08BD08B50122818800680AF064FA08BD08B5844600680A4BFD
:203C8000984206D002230022BCF8041007F08EF808BDBCF80410B1F5807FF3D102230122AA
:203CA00007F084F8F4E700BF00080240837903B9704710B504468188006807F031F9204637
:203CC000FFF7DAFF0023A37110BD000010B500241EE0114B53F82400104A04EB4403D900F6
:203CE000531850500E4931F814109980002199710C4999600C49D9600C4919610C49596117
:203D000004EB4403D8001044FFF7B6FF0134E4B2072CDED910BD00BF20150208344F002073
:203D2000401502086B3C00085D3C00083B3C0008AD3C000810B5224B187001291BD002296A
:203D400031D001B110BD1F4C00EB400304EBC3035B6900EB400004EBC0009847184B187825
:203D600000EB400304EBC3039B6800EB400004EBC0009847E6E7134C00EB400304EBC30395
:203D80005B6900EB400004EBC00098470C4B187800EB400304EBC303DB6800EB400004EB7F
:203DA000C0009847CEE7074A00EB400302EBC3031B6900EB400002EBC0009847C2E700BFDA
:203DC000F44F0020344F0020F8B5194D194F2F604FF48041A980AF604FF40043AB810024C1
:203DE000AC73EC732C616C6123462246384606F0DDFF23462246A989A86806F0D7FF0E4E8F
:203E000037604FF48051B180B7604FF40053B381AC73EC733461746123462246384606F0B8
:203E2000C5FF23462246B189B06806F0BFFFF8BD1050002000040240F84F002010B50446F6
:203E4000837BC27B934206D001694069FFF7D4FE002834D110BD032B10D0012B19D0022B57
:203E600022D0002BF6D10022818800680AF067F90022A189A0680AF062F9EBE700228188CB
:203E800000680AF05CF90122A189A0680AF057F9E0E70122818800680AF051F90022A189E1
:203EA000A0680AF04CF9D5E70122818800680AF046F90122A189A0680AF041F9CAE7A27BDB
:203EC000244B1B789A4212D0E17B8B4213D0214B1A70204B1B78032B10D0012B19D0022BD2
:203EE00022D063B304F11400FFF780FEB2E7E27B184B1A70EDE7174B1A70EAE70022A1887E
:203F000020680AF01CF90122A189A0680AF017F9E8E70122A18820680AF011F90022A189B8
:203F2000A0680AF00CF9DDE70122A18820680AF006F90122A189A0680AF001F9D2E70022C5
:203F4000A18820680AF0FBF80022A189A0680AF0F6F8C7E7285000208173C173704781736E
:203F6000C2730361704710B582B00446C169806906F0D6FF236A009303230022E169A06917
:203F800006F092FF616820680DF01EFB02B010BD10B5074C204607F0AFF82046FFF7E3FF5A
:203FA000044C204607F0A8F82046FFF7DCFF10BDE48100200882002010B504464168006861
:203FC0000DF0AAFBE169A06906F0AAFF0022E169A06906F0D5FE10BD08B5214807F02AFEFD
:203FE00007F018FE00B908BD07F0F8FD14F04EFD1C4B18601C4B00221A70012813D00228D3
:020000040800F2
:2040000015D0032817D0042819D005281BD0F0B11728E8D1154A1649032007F001FD154BAD
:204020004D221A70DFE7134B01221A70DBE7114B02221A70D7E70F4B03221A70D3E70D4B11
:2040400004221A70CFE70B4B05221A70CBE70A4A0749032007F0E4FC012007F0CFFDC2E716
:2040600050150208685000203D50002010160208081602083C500020F415020810B56648C2
:2040800007F0D8FD654B1B7843B1644B1B78012B29D0624B1B78022B73D010BD07F0BAFD8B
:2040A0000028F2D007F09AFD03465D4A5D49032007F0B6FC07F092FD14F0E4FC51EC100B64
:2040C000FDF73CF8584B1860102002F021F902F01BF90289554B1A80554807F0ABFD4F4BC0
:2040E00001221A70D9E707F095FD0028D1D007F075FD03464F4A4B49032007F091FC07F084
:204100006DFD14F0BFFC51EC100BFDF717F84A4C2060102002F0FCF802F0F6F80289474BF2
:204120001A80414BD3ED006A94ED006A36EE666A3E4B1B88D21A07EE902AB8EEE77AC6EECE
:20414000075A3F4CC4ED005A07EE903AF8EEE77A67EEA57A76EEE77A3A49C1ED007A042258
:204160004FF4986002F08AFB0422214640F2C44002F084FB344807F05DFD284B02221A706B
:204180008BE707F047FD002887D007F027FD03462E4A2449032007F043FC07F01FFD14F03A
:2041A00071FC51EC100BFCF7C9FF294C2060102002F0AEF802F0A8F80289264B1A801E4B31
:2041C000D3ED006A94ED006A36EE666A1B4B1B88D21A07EE902AB8EEE77AC6EE075A184CB2
:2041E000C4ED005A07EE903AF8EEE77A67EEA57A76EEE77A1349C1ED007A04224FF49C608C
:2042000002F03CFB0422214640F2E44002F036FB114B00221A7040E7201602083D50002053
:2042200088160208A81602083050002086500020B8160208201702083450002088500020C3
:20424000745000207850002044170208AC1702082C500020845000203C50002010B56648B1
:2042600007F0E8FC654B1B7843B1644B1B78012B29D0624B1B78022B73D010BD07F0CAFC8B
:204280000028F2D007F0AAFC03465D4A5D49032007F0C6FB07F0A2FC14F0F4FB51EC100B46
:2042A000FCF74CFF584B1860112002F031F802F02BF84288554B1A80554807F0BBFC4F4B5B
:2042C00001221A70D9E707F0A5FC0028D1D007F085FC03464F4A4B49032007F0A1FB07F075
:2042E0007DFC14F0CFFB51EC100BFCF727FF4A4C2060112002F00CF802F006F84288474B7D
:204300001A80414BD3ED006A94ED006A36EE666A3E4B1B88D21A07EE902AB8EEE77AC6EEEC
:20432000075A3F4CC4ED005A07EE903AF8EEE77A67EEA57A76EEE77A3A49C1ED007A042276
:204340004FF4A06002F09AFA0422214640F2045002F094FA344807F06DFC284B02221A7004
:204360008BE707F057FC002887D007F037FC03462E4A2449032007F053FB07F02FFC14F01C
:2043800081FB51EC100BFCF7D9FE294C2060112001F0BEFF01F0B8FF4288264B1A801E4BC5
:2043A000D3ED006A94ED006A36EE666A1B4B1B88D21A07EE902AB8EEE77AC6EE075A184CD0
:2043C000C4ED005A07EE903AF8EEE77A67EEA57A76EEE77A1349C1ED007A04224FF4A460A2
:2043E00002F04CFA0422214640F2245002F046FA114B00221A7040E7D01702083D50002053
:204400003C18020860180208305000208650002074180208E01802083450002088500020F2
:204420006C5000207050002008190208741902082C500020845000203C50002010B566484F
:2044400007F0F8FB654B1B7843B1644B1B78012B29D0624B1B78022B73D010BD07F0DAFB8B
:204460000028F2D007F0BAFB03465D4A5D49032007F0D6FA07F0B2FB14F004FB51EC100B27
:20448000FCF75CFE584B1860122001F041FF01F03BFF028A554B1A80554807F0CBFB4F4B6C
:2044A00001221A70D9E707F0B5FB0028D1D007F095FB03464A4A4B49032007F0B1FA07F06B
:2044C0008DFB14F0DFFA51EC100BFCF737FE494C2060122001F01CFF01F016FF028A464B81
:2044E0001A80414BD3ED006A94ED006A36EE666A3E4B1B88D21A07EE902AB8EEE77AC6EE0B
:20450000075A3E4CC4ED005A07EE903AF8EEE77A67EEA57A76EEE77A3949C1ED007A042296
:204520004FF4A86002F0AAF90422214640F2445002F0A4F9334807F07DFB284B02221A70AE
:204540008BE707F067FB002887D007F047FB0346234A2449032007F063FA07F03FFB14F009
:2045600091FA51EC100BFCF7E9FD274C2060122001F0CEFE01F0C8FE028A244B1A801D4BE9
:20458000D3ED006A94ED006A36EE666A1A4B1B88D21A07EE902AB8EEE77AC6EE075A174CF0
:2045A000C4ED005A07EE903AF8EEE77A67EEA57A76EEE77A1249C1ED007A04224FF4AC60B9
:2045C00002F05CF90422214640F2645002F056F90F4B00221A7040E7981902083D5000204B
:2045E000001A0208201A02083050002086500020341A020834500020885000207C500020DD
:20460000805000209C1A02082C500020845000203C50002010B57C4807F00CFB7B4B1B78CE
:204620006BB17A4B1B78012B2ED0784B1B78022B78D0764B1B78032B00F0998010BD07F0C2
:20464000E9FA0028EDD007F0C9FA0346704A7149032007F0E5F907F0C1FA14F013FA51EC23
:20466000100BFCF76BFD6C4B1860132001F050FE01F04AFEC289694B1A80694807F0DAFAD5
:20468000624B01221A70D9E707F0C4FA0028CCD007F0A4FA0346634A5E49032007F0C0F982
:2046A00007F09CFA14F0EEF951EC100BFCF746FD5D4C2060132001F02BFE01F025FEC2891F
:2046C0005A4B1A80544BD3ED006A94ED006A36EE666A524B1B88D21A07EE902AB8EEE77A11
:2046E000C6EE075A524CC4ED005A07EE903AF8EEE77A67EEA57A76EEE77A4E49C1ED007AFE
:2047000004224FF4B06002F0B9F80422214640F2845002F0B3F8484807F08CFA3B4B022296
:204720001A708BE707F076FA002882D007F056FA0346424A3749032007F072F907F04EFA3C
:2047400014F0A0F951EC100BFCF7F8FC3C4B1860132001F0DDFD01F0D7FDC289394B1A8052
:20476000394807F067FA294B03221A7066E707F051FA00283FF462AF07F030FA0346334A5B
:204780002449032007F04CF907F028FA14F07AF951EC100BFCF7D2FC2D4C2060132001F087
:2047A000B7FD01F0B1FDC2892A4B1A80244BD3ED006A94ED006A36EE666A224B1B88D21AD8
:2047C00007EE902AB8EEE77AC6EE075A184CC4ED005A07EE903AF8EEE77A67EEA57A76EEC1
:2047E000E77A1449C1ED007A04224FF4B46002F045F80422214640F2A45002F03FF8164BEA
:2048000000221A701AE700BF041B02083D500020641B0208841B020830500020865000208E
:20482000981B0208F81B0208345000208850002040500020445000201C1C02087C1C0208BA
:20484000385000208A500020A01C0208001D02082C500020845000203C5000202C4B1B7883
:2048600003B170472DE9F047DFF8DCA0294BCAF800302949294B0B60294E2A4A32602A4F80
:204880002A4B3B60DFF8C4802948C8F80000DFF8C0902848C9F80000274C2260274D2B6070
:2048A00004224FF4BC6001F0E9FF0422514640F2E45001F0E3FF042249464FF4C06001F09B
:2048C000DDFF0422414640F2046001F0D7FF042239464FF4C46001F0D1FF0422314640F256
:2048E000246001F0CBFF042229464FF4C86001F0C5FF0422214640F2446001F0BFFF10485A
:2049000007F098F90F4B00221A70BDE8F08700BF3D50002039B4803F4C500020128350BF75
:2049200058500020355E823F5C500020E71D08C1E4837E3F772DE13E505000205450002057
:20494000241D02083C50002048500020605000206450002008B500F077F801281DD1134B73
:204960001B78052B15D8DFE803F00306090C0F12FFF732FB19E0FFF781FB16E0FFF76EFCAA
:2049800013E0FFF75BFD10E0FFF744FE0DE0FFF765FF064B00221A7007E0054A05490320C3
:2049A00007F03EF8012007F029F908BD3C5000203C1D0208581D020808B5044B1860044B6A
:2049C00001221A700348FFF711F908BD945000208C50002090500020014B1878704700BFC8
:2049E0008C5000207047000008B501F08DFC4389064A138040F69702934203D8044B00222E
:204A00001A7008BD024B01221A70FAE7765600208C50002008B5F2EE047A60EE277A17EE75
:204A2000900AFCF751F841EC100B13F0DBFF51EC100B0022034BFCF7C9F9FCF77FFB00EEA3
:204A4000100A08BD00002440024B00221A700120704700BFB6550020014B1878704700BF06
:204A6000B65500202DE9F84F9F4B186004229F494FF4986001F034FFDFF880B30422594610
:204A800040F2C44001F02CFF042299494FF49C6001F026FF0422974940F2E44001F020FFFB
:204AA000042295494FF4A06001F01AFF0422934940F2045001F014FF042291494FF4A460D2
:204AC00001F00EFF04228F4940F2245001F008FF04228D494FF4A86001F002FF04228B4909
:204AE00040F2445001F0FCFE042289494FF4AC6001F0F6FE0422874940F2645001F0F0FE1E
:204B0000042285494FF4B06001F0EAFE0422834940F2845001F0E4FE042281494FF4B46063
:204B200001F0DEFE04227F4940F2A45001F0D8FE04227D494FF4B86001F0D2FE04227B49DB
:204B400040F2C45001F0CCFE042279494FF4BC6001F0C6FEDFF8A8A20422514640F2E45014
:204B600001F0BEFEDFF89C92042249464FF4C46001F0B6FEDFF890820422414640F2246076
:204B800001F0AEFE6B4F042239464FF4C06001F0A7FE694E0422314640F2046001F0A0FEA7
:204BA000664D042229464FF4C86001F099FE644C0422214640F2446001F092FEDBF8002033
:204BC000604B1A60494B1A685F4B1A60494B1A685E4B1A60464B1A685D4B1A60474B1A68F4
:204BE0005C4B1A60444B1A685B4B1A60454B1A685A4B1A60424B1A68594B1A60434B1A68F5
:204C0000584B1A60404B1A68574B1A60414B1A68564B1A603E4B1A68554B1A603F4B1A68F4
:204C2000544B1A603C4B1A68534B1A603D4B1A68524B1A603A4B1A68514B1A603C4B1A68F3
:204C4000504B1A60DAF800204F4B1A60D9F800204E4B1A60D8F800204D4B1A603A684D4BF9
:204C60001A6032684C4B1A602A684C4B1A6022684B4B1A6001234B4A13804B4A13804B4BC8
:204C80004FF6AA721A804A4B32221A800024494B1C80494B1C6010224849494814F06CF876
:204CA00010224849484814F067F8484B4AF6AA221A80474B1C80474B1C80474B4AF6BB22FA
:204CC0001A80464B1A68464B1A60464B464A5A60464A1A60464ADA60464A9A6028221A82FD
:204CE000454B1C70BDE8F88F54560020505100204C51002044510020405100203851002015
:204D00003C5100203451002060510020585100205C5100205451002010510020085100201B
:204D20000C5100200451002000510020FC50002018510020305100202C510020205100204C
:204D40001C510020DC500020E4500020D8500020E0500020CC500020D4500020C8500020D6
:204D6000D0500020EC500020F4500020E8500020F05000209C500020A45000209850002053
:204D8000A0500020AC500020A8500020BC500020B8500020C4500020C0500020B4500020F3
:204DA000B0500020B8510020BA510020AE510020A6510020A8510020B4510020601D020884
:204DC000D4510020701D0208C4510020B0510020AA510020C0510020AC510020BC5100200B
:204DE00064510020E02B00209A99C141CDCCC0419A9921410000C441E85100204851002038
:204E000014510020285100202451002008B51E220249202001F064FD08BD00BF10560020FB
:204E200008B5094B1A8D094B1B889A4204D1064B1A8D064B1A8008BD022205494FF4E07065
:204E400001F01CFDF3E700BFE0550020E00000200856002008B5094B5A8D094B1B889A4211
:204E600004D1064B5A8D064B1A8008BD022205494FF4E17001F002FDF3E700BFE055002091
:204E8000E20000200A56002008B5114B1B78012B00D008BD4FF47A710E4B1868FEF7ACFE7D
:204EA00070B90D4B1B78022BF3D90A48FEF79EFE0023094A1370064A137008F00DFCE8E766
:204EC0000448FEF793FE044A137801331370E8E79C5500206C510020A4510020064B1B78BA
:204EE000012B04D013B9054B01221A607047034A01211160F6E700BFA5510020D4000020BC
:204F000008B508490848FBF73FFA20B90549064813F0D4FE08BD102202494FF4D07001F008
:204F2000ADFCF3E7D4510020F400002008B508490848FBF729FA20B90549064813F0BEFEEE
:204F400008BD102202494FF4D87001F097FCF3E7C4510020E400002010B5064C0123A3858A
:204F600002F0C6FF0023A385034A0449032006F057FD10BDE0550020801D0208981D0208A0
:204F8000064BDB8D012B04D013B9054B01221A707047034B02221A70704700BFE055002011
:204FA000E851002038B52D4C022204F128014FF4E07001F095FC022204F126014FF4927056
:204FC00001F08EFC022204F12A014FF4E17001F087FC022204F124014FF4937001F080FC19
:204FE000042204F120014FF4947001F079FC10221B4940F2252001F073FC102219494FF484
:20500000D07001F06DFC102217494FF4D87001F067FC04221549A02001F062FC0122144972
:205020004FF4E27001F05CFC124D0422A9184FF4907001F055FC6A680F4B1A60628D0F4BD8
:205040001A70B4F926200E4B1A80B4F924200D4B1A80226A0C4B1A8038BD00BFE055002077
:205060006C530020D4510020C451002034560020A5510020D85500209453002099530020B7
:20508000905300207C5300207E53002008B50C4B1A6801321A600B4BA3FB0213DB0A4FF4B9
:2050A000616101FB132303B108BD05494B6803F5616341F8043F0422A02001F0DFFBF3E7BF
:2050C00030560020C5B3A291002306E021490A6822F001020A600133DBB2022B38D8012BF1
:2050E0000DD0022B1BD0002BF5D11B4A1288142AECD818490A6842F001020A60EBE7164A25
:2051000052683C2A05D813490A6842F002020A60E1E710490A6822F002020A60DBE70F48F8
:20512000C188C1EB01118A0001890A440C490A60094949688A4205D306490A6842F00402A7
:205140000A60C8E703490A6822F004020A60C2E7704700BFB4510020087900206C53002032
:20516000E4510020002326E02C48408D48B10420121A91421DDA2A490A6822F001020A60F9
:2051800017E00220F4E7274A1188244A928C91420AD8234A526812F0020F05D020490A68E6
:2051A00042F002020A6004E01D490A6822F002020A600133DBB2022B2FD8012BE3D0022B12
:2051C00014D0002BF5D1184AB2F91010134AB2F926209142C8DB1248406810F0010FC3D064
:2051E0000F490A6842F001020A60E2E70D4A51680A4A126A91420AD8094A526812F0040FC6
:2052000005D007490A6842F004020A60D1E704490A6822F004020A60CBE77047E05500209E
:20522000D85500200879002058560020064BD3ED007A9FED067A67EE877AFCEEE77A17EE75
:20524000903A98B2704700BF385600200000C842064BD3ED027A9FED067A67EE877AFCEE33
:20526000E77A17EE903A98B2704700BF385600200000C842064BD3ED037A9FED067A67EE97
:20528000877AFCEEE77A17EE903A98B2704700BF385600200000C842064BD3ED017A9FED63
:2052A000067A67EE877AFCEEE77A17EE903A98B2704700BF385600200000C842034B93EDB8
:2052C000010ADFED037A20EE270A7047385600200000C842034B93ED030ADFED037A20EE9A
:2052E000270A7047385600200000C842034B93ED040ADFED037A20EE270A70473856002045
:205300000000C842054BB3F91630642202FB03F300EE103AB8EEC00A704700BF38560020FC
:2053200010B489B0284A0023D3819381138053809380D38013815381244A32211180244A7F
:2053400014211180234A782111600AE0224AFF2122F8331002EBC3020021518051600133B4
:20536000DBB23F2BF2D91D4A00231380538093801B4C238463841B4B0DF1100C0FCBACE885
:2053800007002CF8023B1B0C8CF80030A44608AB13E90F00ACE807002CF8023B1B0C8CF87B
:2053A0000030114BEC460FCBACE807008CF8003004F1100C6B460FCBACE807008CF800301B
:2053C00009B05DF8044B704794510020B4550020AC550020B05500209C530020A055002021
:2053E00070510020B01D0208C01D020808B50388A3F291133C2B00F20581DFE813F03D00A7
:2054000049006A00760003010301030103010301030103010301030103010301030103012F
:2054200003010301030103010301030103010301030103010301030103010301030103012C
:2054400003010301030103010301030103010301030103010301030103010301030103010C
:205460000301030103010301030185009100A900B5000301C500F700654B5B68072B03D864
:20548000644B01221A60C0E0624B00221A60BCE0614B5B8D73B9604BB3F92630143B9BB232
:2054A0003C2B03D85B4B01221A60AEE0594B00221A60AAE0584BB3F92630443B9BB26C2B07
:2054C00003D8544B01221A609FE0524B00221A609BE0514B9B8C642B03D84E4B01221A601F
:2054E00093E04C4B00221A608FE04B4B1B6AF03B43F25072934203D8464B01221A6084E018
:20550000444B00221A6080E0444B1B88012B03D9404B00221A6078E03E4B01221A6074E0CD
:205520003E4B5B88012B03D93A4B00221A606CE03A4B9B88012BF7D8384BDB883C2BF3D8CF
:20554000364B1B893C2BEFD8324B01221A605CE0324B5B89012B03D92E4B00221A6054E0F0
:205560002C4B01221A6050E02C4B9B89012B03D9284B00221A6048E0284BDB893C2BF7D800
:20558000244B01221A6040E0254B1B68012B13D9234B5B68012B15D9214B9B68012B17D9FE
:2055A0001F4BDB68012B19D91D4B1B69012B19D9184B00221A6028E0164B01221A60FFF71B
:2055C000AFFEE5E7134B01221A60FFF7A9FEE3E7104B01221A60FFF7A3FEE1E70D4B01221E
:2055E0001A60E1E70B4B01221A600EE00D4B1B78012B03D9074B00221A6006E0054B01224E
:205600001A6002E0034B00221A60024B186808BDD8550020A8550020E05500206C53002014
:20562000B8550020A551002010B5FFF7DFFEA0B10C4BB3F926200C4BB3F900309A4210D006
:20564000084C022204F126014FF4927001F016F9B4F92620044B1A8003E0034B1A88014B76
:20566000DA8410BDE05500209053002010B5FFF7BDFE98B10C4BB3F900200C4B9B8C9A426B
:2056800010D00A4C022204F124014FF4937001F0F5F8B4F92420044B1A8003E0024B1A88C6
:2056A000024B9A8410BD00BF7C530020E055002010B5FFF79BFE90B10C4BB3F900200C4BA0
:2056C0001B6A9A4210D00A4C042204F120014FF4947001F0D3F8226A044B1A8004E0034B4D
:2056E000B3F90020024B1A6210BD00BF7E530020E055002038B5FFF779FE90B110220C4921
:205700000C4813F0F1F988B1094C1022214640F2252001F0B3F8074D94E80F0085E80F00B3
:2057200004E0034C034B0FCB84E80F0038BD00BF6C5300208053002008B5084B1B7823B196
:20574000012B09D1FFF752FE30B1054B00221A605A609A60DA601A6108BD00BFA55100202D
:20576000B855002008B5FFF741FE18B9094B00221A7008BD012207494FF4E27001F07EF805
:20578000054B01221A700548FEF730FA044B00221A70EEE7A55100209C5500206C510020CC
:2057A000A451002010B5FFF721FE80B10A4B5A680A4B1B689A420ED0074C0422A1184FF4AB
:2057C000907001F05BF86268044B1A6003E0034B1A68014B5A6010BDD85500209453002018
:2057E00010B5334B5B8D012B09D0324B9880324B1B78012B37D02F4BB3F9040010BDFBF7B8
:2058000051F927A3D3E90023FBF7B6F900222B4BFAF7FCFFFBF74AFC00B2264B5880988025
:20582000254B1B78002BE6D1214CB4F92600FBF739F91BA3D3E90023FBF79EF900221F4B6D
:20584000FAF7E4FFFBF732FC00B21A4B1881214621F8260F02224FF4927001F00FF8164B2D
:2058600001221A70C7E7124CB4F926002038FBF719F90DA3D3E90023FBF77EF9FBF716FC44
:2058800000B20C4BD880214621F8260F02224FF4927000F0F3FF084B00221A70ABE700BF57
:2058A000CDCCCCCCCCCCFC3F721CC7711CC7E13FE0550020CC5500209953002000004040F9
:2058C000DFED357A20EE270ADFED347A20EE270ADFED337A30EE670AB2EE047AC0EE077A00
:2058E0000138032816D8DFE800F0021B2F432D4B93ED007A67EE277A2B4B93ED007A77EED3
:20590000877AFDEEE77A17EE903A1BB207EE903AF8EEE77AFDEEE77A17EE903A18B27047FC
:20592000224B93ED007A67EE277A214B93ED007A77EE877AFDEEE77A17EE903A1BB207EE61
:20594000903AF8EEE77AE5E71A4B93ED007A67EE277A194B93ED007A77EE877AFDEEE77A05
:2059600017EE903A1BB207EE903AF8EEE77AD1E7124B93ED007A67EE277A114B93ED007A2A
:2059800077EE877AFDEEE77A17EE903A1BB207EE903AF8EEE77ABDE700404E450000803983
:2059A0000000FA43145100201851002024510020285100202C510020305100201C510020A3
:2059C0002051002038B57A4B1C682389B3F5FF6F40F29580774B1B8907EE903A764B93ED91
:2059E000000AF8EEE77A67EE807A744B93ED000A37EE800AFFF70EF8714B83ED000A228A31
:205A000040F24E739A4240F290806A4B1B8A07EE903A6C4B93ED000AF8EEE77A67EE807A85
:205A2000694B93ED000A37EE800AFEF7F3FF644B83ED020A628840F24E739A4240F28B8071
:205A40005C4B5B8807EE903A604B93ED000AF8EEE77A67EE807A5E4B93ED000A37EE800A50
:205A6000FEF7D8FF564B83ED010AE389F02B40F28880504BDB8907EE903A564B93ED000A94
:205A8000F8EEE77A67EE807A534B93ED000A37EE800AFEF7BFFF4A4B83ED030A454DB5F994
:205AA000003000EE103A0120B8EEC00AFFF708FFFFF796FE424C2082B5F9043000EE103A1C
:205AC0000320B8EEC00AFFF7FBFE6082B5F90C3000EE103A0420B8EEC00AFFF7F1FEE08265
:205AE000B5F9063000EE103A0220B8EEC00AFFF7E7FEA082FFF7C8F9FFF7E6FA38BD2D4B01
:205B00001B8907EE903A354B93ED000AF8EEE77A67EE807A324B93ED000A37EE800AFEF7D7
:205B200079FF274B83ED000A69E7224B1B8A07EE903A2C4B93ED000AF8EEE77A67EE807A49
:205B4000294B93ED000A37EE800AFEF763FF1C4B83ED020A6EE7174B5B8807EE903A234B97
:205B600093ED000AF8EEE77A67EE807A204B93ED000A37EE800AFEF74DFF114B83ED010A49
:205B800073E70C4BDB8907EE903A1A4B93ED000AF8EEE77A67EE807A174B93ED000A37EE9B
:205BA000800AFEF737FF064B83ED030A76E700BF545600208C580020445100204C51002006
:205BC00058560020545100205C510020345100203C510020045100200C5100204851002068
:205BE0005051002058510020605100203851002040510020085100201051002000000000F6
:205C000038B52DED028BCC4B1B681B89B3F5FF6F40F2EB80C94807EE903AB8EE670A00F127
:205C20002C0200F1280103F01DFFC54BD3ED007A20EE270AC34BD3ED007A30EE270AC24BE0
:205C400083ED000ABC4B1B685B8840F24E72934240F2E480BD4807EE903AB8EE670A00F134
:205C60002C0200F1280103F0FDFEB94BD3ED007A20EE270AB74BD3ED007A30EE270AB24BE9
:205C800083ED010AAC4B1B681B8A40F24E72934240F2DD80B04807EE903AB8EE670A00F155
:205CA0002C0200F1280103F0DDFEAC4BD3ED007A20EE270AAA4BD3ED007A30EE270AA24BF3
:205CC00083ED020A9C4B1B68DB89F02B40F2D880A44807EE903AB8EE670A00F12C0200F103
:205CE000280103F0BFFEA04BD3ED007A20EE270A9E4BD3ED007A30EE270A934B83ED030A9A
:205D00008D4B1B689B8AB3F5166F00F2D280B3F5B97F40F2EC80964807EE903AB8EE670A60
:205D200000F12C0200F1280103F09CFE914B93ED008A60EE087A17EE900AFAF7C5FE04464A
:205D40000D46DFED8D7A68EE277A17EE900AFAF7BBFE02460B4676A1D1E90001FAF754FD30
:205D600002460B4620462946FAF750FDFBF7E6F9754B1861704D2B68B3F9003000EE103A09
:205D80007E48B8EEC00A00F12C0200F1280103F069FE0120FFF794FD6B4CA0822B68B3F97A
:205DA000043000EE103A7648B8EEC00A00F12C0200F1280103F056FE0320FFF781FDE082D0
:205DC0002B68B3F9063000EE103A6E48B8EEC00A00F12C0200F1280103F044FE0220FFF76A
:205DE0006FFD2083BDEC028B38BD544807EE903AB8EE670A00F12C0200F1280103F032FE9B
:205E0000614BD3ED007A20EE270A604BD3ED007A30EE270A4C4B83ED000A13E74B4807EE96
:205E2000903AB8EE670A00F12C0200F1280103F019FE574BD3ED007A20EE270A554BD3EDC3
:205E4000007A30EE270A404B83ED010A1AE7424807EE903AB8EE670A00F12C0200F12801D9
:205E600003F000FE4C4BD3ED007A20EE270A4B4BD3ED007A30EE270A334B83ED020A21E700
:205E8000384807EE903AB8EE670A00F12C0200F1280103F0E7FD424BD3ED007A20EE270A96
:205EA000404BD3ED007A30EE270A274B83ED030A26E72F4807EE903AB8EE670A00F12C0266
:205EC00000F1280103F0CEFD374BD3ED007A20EE270A9FED367A67EE877AB7EE007A77EED9
:205EE000677A30EE270A184B83ED040A42E7204807EE903AB8EE670A00F12C0200F12801F1
:205F000003F0B0FD2A4BD3ED007A20EE270A9FED297A67EE877A9FED287A77EE677A30EEDC
:205F2000270A094B83ED040A24E700BFAFF30080CDCCCCCCCCCCEC3F54560020DC52002066
:205F4000445100204C510020385600204C520020345100203C5100203C530020545100209D
:205F60005C5100200C530020045100200C5100207C520020DC00002000901445EC510020B3
:205F80001C520020AC520020485100205051002038510020405100205851002060510020E7
:205FA0000851002010510020F850002000002F45D800002000808A43000000000E4B1B8DC5
:205FC000012B0ED00D4B1B78002B18BF022B05D10A4B01221A700A4B00221A70084B1878E1
:205FE0007047064B1B78012BF8D8044B02221A70034B01221A70F1E7E055002098530020DA
:020000040800F2
:2060000068510020014B1878704700BFE851002070B50024112C10D8FDF710FD78B9084D07
:206020002E68FDF785FD30812B681A8940F243739A4204D80134E4B2ECE702F0E7F970BD30
:206040007056002010B404461B4B18601B4B00221A701CE003EB830203EB42020A4418480D
:206060004FF0000C20F812C00133164A1370154B1B78072BEED90023134A22F81130134AB0
:2060800022F8113024F8113001310C4B19700B4B19780A2903D80B4B00221A70E7E700234E
:2060A000064A1370074A1370094A1370094A13705DF8044B704700BFA4580020755600206C
:2060C000A858002058590020745800207C560020785600207456002008B5FDF723FD08BD83
:2060E00070B502F033FC04467A4D2E68FDF720FD30812B681A8940F243739A4240F2D9806C
:20610000754C2368734D2A6812891A81FDF7D6FC28602368B0F900201A8041885980B0F924
:2061200004109980B0F90610D98041895981B0F90C109981C189D981018A1982418A598227
:20614000818A9982654807EE902AB8EEE70A00F12C0200F1280103F085FCBCEEC00A604D58
:2061600010EE103A2B802368B3F9043000EE103A5C48B8EEC00A00F12C0200F1280103F049
:2061800071FCBCEEC00A10EE103AAB802368B3F90C3000EE103A5448B8EEC00A00F12C02D5
:2061A00000F1280103F05EFCBCEEC00A10EE103AAB812368B3F9063000EE103A4B48B8EEB2
:2061C000C00A00F12C0200F1280103F04BFCBCEEC00A10EE103AEB8023681B8900EE103AF4
:2061E0004348B8EE400A00F12C0200F1280103F039FCBDEEC00A10EE103A2B8123685B88EC
:2062000000EE103A3B48B8EE400A00F12C0200F1280103F027FCBDEEC00A10EE103A6B80DC
:2062200023681B8A00EE103A3348B8EE400A00F12C0200F1280103F015FCBDEEC00A10EEDB
:20624000103A2B822368DB8900EE103A2B48B8EE400A00F12C0200F1280103F003FCBDEEE7
:20626000C00A10EE103AEB8123689B8A00EE103A2348B8EE400A00F12C0200F1280103F031
:20628000F1FBBDEEC00A10EE103AAB8223685B8900EE103A1B48B8EE400A00F12C0200F11E
:2062A000280103F0DFFBBDEEC00A10EE103A6B8170BD02F041F801287FF422AF0021032036
:2062C000FDF738FD601E80B202283FF619AFFFF79FFE15E770560020A45800209456002023
:2062E0008C580020F4560020E457002054570020B4570020C456002044580020145800205D
:206300002457002084570020004870478C58002008B50C38092811D8DFE800F005111D29B6
:20632000353D454D555D304BB3F900302F4A3049032005F075FB012005F060FC08BD2A4B2A
:20634000B3F904302B4A2A49032005F069FB012005F054FCF2E7244BB3F90C30264A244986
:20636000032005F05DFB012005F048FCE6E71E4BB3F90630214A1E49032005F051FB0120E4
:2063800005F03CFCDAE7184B1B891D4A1849032005F046FBD2E7144B5B881A4A1449032008
:2063A00005F03EFBCAE7104B1B8A174A1049032005F036FBC2E70C4BDB89144A0C490320C1
:2063C00005F02EFBBAE7084B9B8A114A0849032005F026FBB2E7044B5B890E4A044903200D
:2063E00005F01EFBAAE700BF8C580020D01D0208E81D0208F01D0208081E0208241E0208A2
:206400003C1E0208541E02086C1E0208841E02089C1E0208B41E020808B51038092819D895
:20642000DFE800F055606B76181805192D413E4BB3F9003000EE103A0120B8EEC00AFFF72F
:206440003FFA0346394A3A49032005F0E9FA012005F0D4FB08BD344BB3F9043000EE103A78
:206460000320B8EEC00AFFF72BFA0346314A3049032005F0D5FA012005F0C0FBEAE72A4B33
:20648000B3F90C3000EE103A0420B8EEC00AFFF717FA0346284A2649032005F0C1FA012023
:2064A00005F0ACFBD6E7204BB3F9063000EE103A0220B8EEC00AFFF703FA03461F4A1C4962
:2064C000032005F0ADFA012005F098FBC2E7164B1889FEF7ABFE0346194A1549032005F0E9
:2064E0009FFAB7E7104B5888FEF7D6FE0346154A0F49032005F094FAACE70B4B188AFEF73B
:20650000A7FE0346104A0A49032005F089FAA1E7054BD889FEF7AEFE03460C4A044903205C
:2065200005F07EFA96E700BF8C580020CC1E0208E81D0208E41E0208FC1E0208141F02083E
:206540002C1F0208481F0208641F0208801F0208034A1388136043EA00431360704700BF8B
:206560005C590020034A1168034B0B4013600343136070475C5900200000FFFF10B502F07A
:20658000E5F9044601F03EFB28B1012C0BD12A48FDF754FC10BD00212748FDF7DDFC0020C7
:2065A000FFF7D6FFF3E701F057F950B14FF47A73002201212048FDF7D2FC1020FFF7C8FF69
:2065C000E5E701F033F948B1FA23002203211A48FDF7C5FC0420FFF7BBFFD8E701F0C6FD18
:2065E00070B1ACB1042C1BD001F02AF80128CED103211148FDF7B0FC0820FFF7A9FFC6E797
:2066000001210D48FDF7A8FC8020FFF7A1FFBEE700210948FDF7A0FC0020FFF799FFB6E743
:206620004FF4FA73002203210348FDF798FC0220FFF78EFFABE700BF1050002010B502F064
:2066400085F9044601F0DEFA80B1012C19D000F077FF10B34FF4FA73022201212F48FDF7D8
:206660007EFC4FF48460FFF77DFF06E000212B48FDF772FC0020FFF775FF2848FDF7DEFB64
:2066800010BD4FF4FA73002202212448FDF767FC4FF40070FFF766FFEFE700F02FFF70B94A
:2066A000002C18BF042C02D001F0ECF878B900211A48FDF751FC0020FFF754FFDDE70121BC
:2066C0001648FDF749FC8020FFF74CFFD5E700F03DFF0028D1D000F005FF38B103210F4839
:2066E000FDF73AFC0820FFF73DFFC6E700F000FF50B14FF47A73002203210848FDF72FFC94
:206700000120FFF72FFFB8E7FA23002203210348FDF725FC0420FFF725FFAEE7F84F002098
:2067200008B500210648FDF717FC00210548FDF713FC0020FFF70CFF0020FFF713FF08BDA7
:20674000F84F00201050002008B50B4B1B784BB1012B0AD0084A13780133DBB21370022B5C
:2067600006D008BDFFF70AFFF4E7FFF767FFF1E7134600221A70F4E7605900200C4B1A88BE
:2067800082B119469B8803EB43004FEA800C09486044013A0A8001338B80054B9B88802B37
:2067A00002D070470020F8E7014B00229A80F8E7706900207869002008B5FFF7DFFF034B11
:2067C000186010B1024B01221A7008BD6459002076690020104B1A68138812899918B1F57B
:2067E000805F12DBC3F580520C490A8003F01F03C3F120039BB2094A12889A4208D9084A2F
:206800001380084B03221A70704704490A80EDE7034B1A80F5E700BF64590020786F00201A
:20682000685900207669002008B50A4B1B681B88B3F5805F03D2084B02221A7008BD074ACD
:206840000749012005F0ECF80023024A1360024A1370F3E764590020766900209C1F0208C2
:20686000C01F020808B5044B1B6AA020984700B908BD0120FCE700BF5C0100202DE9F843F0
:20688000144B1C887F2C05D9124B5B88802B1CD0BDE8F8830746164698465D880E4B03EBC2
:2068A00045194846F9F7CCFC0C4B05EB450203EB820123F82270C1F804900E810134A8F8D7
:2068C00000400135A8F80250DEE7024B00225A80DEE700BF706900206C59002078690020DF
:2068E000F8B505460E461746FFF7BCFFD8B1B5F5805F11D2104B1C6B3B4632462946A0203F
:20690000A04710F0FF0401D0012412E00B4A0C49012005F085F80CE00A4A0949012005F0C0
